{
  "contractName": "FlightSuretyApp",
  "abi": [
    {
      "inputs": [
        {
          "internalType": "address payable",
          "name": "contractAddress",
          "type": "address"
        }
      ],
      "stateMutability": "nonpayable",
      "type": "constructor"
    },
    {
      "anonymous": false,
      "inputs": [
        {
          "indexed": false,
          "internalType": "address",
          "name": "airline",
          "type": "address"
        },
        {
          "indexed": false,
          "internalType": "string",
          "name": "flight",
          "type": "string"
        },
        {
          "indexed": false,
          "internalType": "uint256",
          "name": "timestamp",
          "type": "uint256"
        },
        {
          "indexed": false,
          "internalType": "uint256",
          "name": "statusCode",
          "type": "uint256"
        }
      ],
      "name": "FlightClosed",
      "type": "event"
    },
    {
      "anonymous": false,
      "inputs": [
        {
          "indexed": false,
          "internalType": "address",
          "name": "airline",
          "type": "address"
        },
        {
          "indexed": false,
          "internalType": "string",
          "name": "flight",
          "type": "string"
        },
        {
          "indexed": false,
          "internalType": "uint256",
          "name": "timestamp",
          "type": "uint256"
        },
        {
          "indexed": false,
          "internalType": "uint256",
          "name": "status",
          "type": "uint256"
        }
      ],
      "name": "FlightStatusInfo",
      "type": "event"
    },
    {
      "anonymous": false,
      "inputs": [
        {
          "indexed": false,
          "internalType": "address",
          "name": "airline",
          "type": "address"
        },
        {
          "indexed": false,
          "internalType": "string",
          "name": "flight",
          "type": "string"
        },
        {
          "indexed": false,
          "internalType": "uint256",
          "name": "timestamp",
          "type": "uint256"
        }
      ],
      "name": "FlightUpdated",
      "type": "event"
    },
    {
      "anonymous": false,
      "inputs": [
        {
          "indexed": false,
          "internalType": "address",
          "name": "airline",
          "type": "address"
        },
        {
          "indexed": false,
          "internalType": "string",
          "name": "flight",
          "type": "string"
        },
        {
          "indexed": false,
          "internalType": "uint256",
          "name": "timestamp",
          "type": "uint256"
        },
        {
          "indexed": false,
          "internalType": "uint256",
          "name": "status",
          "type": "uint256"
        },
        {
          "indexed": false,
          "internalType": "address",
          "name": "oracle",
          "type": "address"
        }
      ],
      "name": "InsufficientData",
      "type": "event"
    },
    {
      "anonymous": false,
      "inputs": [
        {
          "indexed": false,
          "internalType": "address",
          "name": "airline",
          "type": "address"
        },
        {
          "indexed": false,
          "internalType": "string",
          "name": "flight",
          "type": "string"
        },
        {
          "indexed": false,
          "internalType": "uint256",
          "name": "timestamp",
          "type": "uint256"
        },
        {
          "indexed": false,
          "internalType": "uint256",
          "name": "status",
          "type": "uint256"
        },
        {
          "indexed": false,
          "internalType": "address",
          "name": "oracle",
          "type": "address"
        }
      ],
      "name": "OracleReport",
      "type": "event"
    },
    {
      "anonymous": false,
      "inputs": [
        {
          "indexed": true,
          "internalType": "uint8",
          "name": "index",
          "type": "uint8"
        },
        {
          "indexed": false,
          "internalType": "address",
          "name": "airline",
          "type": "address"
        },
        {
          "indexed": false,
          "internalType": "string",
          "name": "flight",
          "type": "string"
        },
        {
          "indexed": false,
          "internalType": "uint256",
          "name": "timestamp",
          "type": "uint256"
        }
      ],
      "name": "OracleRequest",
      "type": "event"
    },
    {
      "inputs": [],
      "name": "REGISTRATION_FEE",
      "outputs": [
        {
          "internalType": "uint256",
          "name": "",
          "type": "uint256"
        }
      ],
      "stateMutability": "view",
      "type": "function",
      "constant": true
    },
    {
      "inputs": [],
      "name": "flightCount",
      "outputs": [
        {
          "internalType": "uint256",
          "name": "",
          "type": "uint256"
        }
      ],
      "stateMutability": "view",
      "type": "function",
      "constant": true
    },
    {
      "inputs": [],
      "name": "flightSuretyData",
      "outputs": [
        {
          "internalType": "contract IFlightSurety",
          "name": "",
          "type": "address"
        }
      ],
      "stateMutability": "view",
      "type": "function",
      "constant": true
    },
    {
      "inputs": [],
      "name": "oracleCount",
      "outputs": [
        {
          "internalType": "uint256",
          "name": "",
          "type": "uint256"
        }
      ],
      "stateMutability": "view",
      "type": "function",
      "constant": true
    },
    {
      "inputs": [],
      "name": "isOperational",
      "outputs": [
        {
          "internalType": "bool",
          "name": "",
          "type": "bool"
        }
      ],
      "stateMutability": "view",
      "type": "function",
      "constant": true
    },
    {
      "inputs": [],
      "name": "getAppOwner",
      "outputs": [
        {
          "internalType": "address",
          "name": "",
          "type": "address"
        }
      ],
      "stateMutability": "view",
      "type": "function",
      "constant": true
    },
    {
      "inputs": [
        {
          "internalType": "address",
          "name": "_contractAddress",
          "type": "address"
        }
      ],
      "name": "authorizeContract",
      "outputs": [],
      "stateMutability": "nonpayable",
      "type": "function"
    },
    {
      "inputs": [],
      "name": "isContractAuthorized",
      "outputs": [
        {
          "internalType": "bool",
          "name": "",
          "type": "bool"
        }
      ],
      "stateMutability": "nonpayable",
      "type": "function"
    },
    {
      "inputs": [
        {
          "internalType": "uint256",
          "name": "index",
          "type": "uint256"
        }
      ],
      "name": "getFlight",
      "outputs": [
        {
          "internalType": "address",
          "name": "airline",
          "type": "address"
        },
        {
          "internalType": "string",
          "name": "flightNumber",
          "type": "string"
        },
        {
          "internalType": "uint256",
          "name": "flightTime",
          "type": "uint256"
        },
        {
          "internalType": "uint256",
          "name": "latestTimestamp",
          "type": "uint256"
        },
        {
          "internalType": "uint256",
          "name": "statusCode",
          "type": "uint256"
        },
        {
          "internalType": "bool",
          "name": "isRegistered",
          "type": "bool"
        }
      ],
      "stateMutability": "view",
      "type": "function",
      "constant": true
    },
    {
      "inputs": [
        {
          "internalType": "address",
          "name": "_airline",
          "type": "address"
        },
        {
          "internalType": "string",
          "name": "_flightNumber",
          "type": "string"
        },
        {
          "internalType": "uint256",
          "name": "_timeStamp",
          "type": "uint256"
        }
      ],
      "name": "getFlight",
      "outputs": [
        {
          "internalType": "address",
          "name": "airline",
          "type": "address"
        },
        {
          "internalType": "string",
          "name": "flightNumber",
          "type": "string"
        },
        {
          "internalType": "uint256",
          "name": "flightTime",
          "type": "uint256"
        },
        {
          "internalType": "uint256",
          "name": "latestTimeStamp",
          "type": "uint256"
        },
        {
          "internalType": "uint256",
          "name": "statusCode",
          "type": "uint256"
        },
        {
          "internalType": "bool",
          "name": "isRegistered",
          "type": "bool"
        }
      ],
      "stateMutability": "view",
      "type": "function",
      "constant": true
    },
    {
      "inputs": [
        {
          "internalType": "string",
          "name": "_name",
          "type": "string"
        },
        {
          "internalType": "address",
          "name": "_airline",
          "type": "address"
        }
      ],
      "name": "registerAirline",
      "outputs": [
        {
          "internalType": "bool",
          "name": "success",
          "type": "bool"
        },
        {
          "internalType": "uint256",
          "name": "votes",
          "type": "uint256"
        }
      ],
      "stateMutability": "nonpayable",
      "type": "function"
    },
    {
      "inputs": [
        {
          "internalType": "address",
          "name": "_airline",
          "type": "address"
        },
        {
          "internalType": "string",
          "name": "_flightNumber",
          "type": "string"
        },
        {
          "internalType": "uint256",
          "name": "_timeStamp",
          "type": "uint256"
        }
      ],
      "name": "registerFlight",
      "outputs": [],
      "stateMutability": "nonpayable",
      "type": "function"
    },
    {
      "inputs": [
        {
          "internalType": "address",
          "name": "airline",
          "type": "address"
        },
        {
          "internalType": "string",
          "name": "flight",
          "type": "string"
        },
        {
          "internalType": "uint256",
          "name": "timestamp",
          "type": "uint256"
        }
      ],
      "name": "fetchFlightStatus",
      "outputs": [],
      "stateMutability": "nonpayable",
      "type": "function"
    },
    {
      "inputs": [],
      "name": "registerOracle",
      "outputs": [],
      "stateMutability": "payable",
      "type": "function",
      "payable": true
    },
    {
      "inputs": [
        {
          "internalType": "uint256",
          "name": "index",
          "type": "uint256"
        }
      ],
      "name": "getOracle",
      "outputs": [
        {
          "internalType": "address",
          "name": "oracleAddress",
          "type": "address"
        }
      ],
      "stateMutability": "view",
      "type": "function",
      "constant": true
    },
    {
      "inputs": [],
      "name": "getMyIndexes",
      "outputs": [
        {
          "internalType": "uint8[3]",
          "name": "",
          "type": "uint8[3]"
        }
      ],
      "stateMutability": "view",
      "type": "function",
      "constant": true
    },
    {
      "inputs": [
        {
          "internalType": "uint8",
          "name": "index",
          "type": "uint8"
        },
        {
          "internalType": "address",
          "name": "airline",
          "type": "address"
        },
        {
          "internalType": "string",
          "name": "flight",
          "type": "string"
        },
        {
          "internalType": "uint256",
          "name": "timestamp",
          "type": "uint256"
        },
        {
          "internalType": "uint256",
          "name": "statusCode",
          "type": "uint256"
        }
      ],
      "name": "submitOracleResponse",
      "outputs": [],
      "stateMutability": "nonpayable",
      "type": "function"
    }
  ],
  "bytecode": "0x60806040526000600560006101000a81548160ff021916908360ff1602179055503480156200002d57600080fd5b50604051620035af380380620035af8339818101604052810190620000539190620000f2565b336000806101000a81548173ffffffffffffffffffffffffffffffffffffffff021916908373ffffffffffffffffffffffffffffffffffffffff16021790555080600160006101000a81548173ffffffffffffffffffffffffffffffffffffffff021916908373ffffffffffffffffffffffffffffffffffffffff1602179055505062000177565b600081519050620000ec816200015d565b92915050565b6000602082840312156200010b576200010a62000158565b5b60006200011b84828501620000db565b91505092915050565b6000620001318262000138565b9050919050565b600073ffffffffffffffffffffffffffffffffffffffff82169050919050565b600080fd5b620001688162000124565b81146200017457600080fd5b50565b61342880620001876000396000f3fe6080604052600436106100fe5760003560e01c806353775a961161009557806367561d931161006457806367561d9314610335578063ca468e441461035e578063cd905dff14610389578063f7c61aeb146103b4578063f83f11c0146103df576100fe565b806353775a96146102725780635f1cc0e6146102b4578063613d8fcc146102df57806364b4f7511461030a576100fe565b8063339d2590116100d1578063339d2590146101d25780633a4396cb146101dc5780633cc0be9c1461021e5780633f001f8d14610247576100fe565b80630e2c41291461010357806310a9de60146101415780631ac824101461017e5780631bc09567146101a7575b600080fd5b34801561010f57600080fd5b5061012a6004803603810190610125919061249b565b610408565b604051610138929190612b08565b60405180910390f35b34801561014d57600080fd5b50610168600480360381019061016391906124f7565b610511565b604051610175919061296b565b60405180910390f35b34801561018a57600080fd5b506101a560048036038101906101a09190612524565b61059d565b005b3480156101b357600080fd5b506101bc610960565b6040516101c99190612d28565b60405180910390f35b6101da610966565b005b3480156101e857600080fd5b5061020360048036038101906101fe91906124f7565b610b64565b60405161021596959493929190612a6a565b60405180910390f35b34801561022a57600080fd5b50610245600480360381019061024091906123bf565b610dc6565b005b34801561025357600080fd5b5061025c6110c5565b6040516102699190612b31565b60405180910390f35b34801561027e57600080fd5b50610299600480360381019061029491906123bf565b6110eb565b6040516102ab96959493929190612a6a565b60405180910390f35b3480156102c057600080fd5b506102c961127f565b6040516102d69190612ad2565b60405180910390f35b3480156102eb57600080fd5b506102f46113bf565b6040516103019190612d28565b60405180910390f35b34801561031657600080fd5b5061031f6113c5565b60405161032c9190612d28565b60405180910390f35b34801561034157600080fd5b5061035c60048036038101906103579190612392565b6113d1565b005b34801561036a57600080fd5b506103736114ef565b604051610380919061296b565b60405180910390f35b34801561039557600080fd5b5061039e611518565b6040516103ab9190612aed565b60405180910390f35b3480156103c057600080fd5b506103c96115bf565b6040516103d69190612aed565b60405180910390f35b3480156103eb57600080fd5b50610406600480360381019061040191906123bf565b611668565b005b600080610413611518565b610452576040517f08c379a000000000000000000000000000000000000000000000000000000000815260040161044990612c68565b60405180910390fd5b600160009054906101000a900473ffffffffffffffffffffffffffffffffffffffff1673ffffffffffffffffffffffffffffffffffffffff16638400729e8585336040518463ffffffff1660e01b81526004016104b193929190612b4c565b6040805180830381600087803b1580156104ca57600080fd5b505af11580156104de573d6000803e3d6000fd5b505050506040513d601f19601f82011682018060405250810190610502919061245b565b80925081935050509250929050565b60006008548210610557576040517f08c379a000000000000000000000000000000000000000000000000000000000815260040161054e90612ce8565b60405180910390fd5b6007828154811061056b5761056a6130c4565b5b9060005260206000200160009054906101000a900473ffffffffffffffffffffffffffffffffffffffff169050919050565b8460ff16600660003373ffffffffffffffffffffffffffffffffffffffff1673ffffffffffffffffffffffffffffffffffffffff1681526020019081526020016000206001016000600381106105f6576105f56130c4565b5b602091828204019190069054906101000a900460ff1660ff16148061068a57508460ff16600660003373ffffffffffffffffffffffffffffffffffffffff1673ffffffffffffffffffffffffffffffffffffffff16815260200190815260200160002060010160016003811061066f5761066e6130c4565b5b602091828204019190069054906101000a900460ff1660ff16145b8061070457508460ff16600660003373ffffffffffffffffffffffffffffffffffffffff1673ffffffffffffffffffffffffffffffffffffffff1681526020019081526020016000206001016002600381106106e9576106e86130c4565b5b602091828204019190069054906101000a900460ff1660ff16145b610743576040517f08c379a000000000000000000000000000000000000000000000000000000000815260040161073a90612cc8565b60405180910390fd5b60008585858560405160200161075c9493929190612921565b6040516020818303038152906040528051906020012090506009600082815260200190815260200160002060000160149054906101000a900460ff166107d7576040517f08c379a00000000000000000000000000000000000000000000000000000000081526004016107ce90612bc8565b60405180910390fd5b600a60008281526020019081526020016000206000838152602001908152602001600020339080600181540180825580915050600190039060005260206000200160009091909190916101000a81548173ffffffffffffffffffffffffffffffffffffffff021916908373ffffffffffffffffffffffffffffffffffffffff1602179055507f60ccfec7c43b2b0f337dad7f5fb6b38b2bef38d9af293fc07462e57fcdf22edc8585858533604051610893959493929190612a10565b60405180910390a16003600a600083815260200190815260200160002060008481526020019081526020016000208054905010610918577f1b78f4335c6749aed77e5530975995e46b856b7a203f094285f246575b5e489d858585856040516108ff94939291906129c4565b60405180910390a1610913858585856117e3565b610958565b7f18167c7679250478fcc75bb7b7531dcb8ad1e69a1522590f43f1c2a7ab77c192858585853360405161094f959493929190612a10565b60405180910390a15b505050505050565b60045481565b670de0b6b3a76400003410156109b1576040517f08c379a00000000000000000000000000000000000000000000000000000000081526004016109a890612ca8565b60405180910390fd5b600660003373ffffffffffffffffffffffffffffffffffffffff1673ffffffffffffffffffffffffffffffffffffffff16815260200190815260200160002060000160009054906101000a900460ff1615610a41576040517f08c379a0000000000000000000000000000000000000000000000000000000008152600401610a3890612c08565b60405180910390fd5b6000610a4c33611de4565b90506000604051806040016040528060011515815260200183815250905080600660003373ffffffffffffffffffffffffffffffffffffffff1673ffffffffffffffffffffffffffffffffffffffff16815260200190815260200160002060008201518160000160006101000a81548160ff021916908315150217905550602082015181600101906003610ae19291906120cd565b509050506007339080600181540180825580915050600190039060005260206000200160009091909190916101000a81548173ffffffffffffffffffffffffffffffffffffffff021916908373ffffffffffffffffffffffffffffffffffffffff16021790555060086000815480929190610b5b90612f49565b91905055505050565b6000606060008060008060008054906101000a900473ffffffffffffffffffffffffffffffffffffffff1673ffffffffffffffffffffffffffffffffffffffff163373ffffffffffffffffffffffffffffffffffffffff1614610bfc576040517f08c379a0000000000000000000000000000000000000000000000000000000008152600401610bf390612c88565b60405180910390fd5b6004548710610c40576040517f08c379a0000000000000000000000000000000000000000000000000000000008152600401610c3790612ce8565b60405180910390fd5b600060038881548110610c5657610c556130c4565b5b90600052602060002090600602016040518060c00160405290816000820160009054906101000a900460ff161515151581526020016001820154815260200160028201548152602001600382015481526020016004820160009054906101000a900473ffffffffffffffffffffffffffffffffffffffff1673ffffffffffffffffffffffffffffffffffffffff1673ffffffffffffffffffffffffffffffffffffffff168152602001600582018054610d0e90612ee6565b80601f0160208091040260200160405190810160405280929190818152602001828054610d3a90612ee6565b8015610d875780601f10610d5c57610100808354040283529160200191610d87565b820191906000526020600020905b815481529060010190602001808311610d6a57829003601f168201915b5050505050815250509050806080015196508060a001519550806040015194508060600151935080602001519250806000015191505091939550919395565b610dce611518565b610e0d576040517f08c379a0000000000000000000000000000000000000000000000000000000008152600401610e0490612c68565b60405180910390fd5b600160009054906101000a900473ffffffffffffffffffffffffffffffffffffffff1673ffffffffffffffffffffffffffffffffffffffff16630e248a11846040518263ffffffff1660e01b8152600401610e68919061296b565b602060405180830381600087803b158015610e8257600080fd5b505af1158015610e96573d6000803e3d6000fd5b505050506040513d601f19601f82011682018060405250810190610eba919061242e565b610ec357600080fd5b6000610ed0848484611fcb565b905060006040518060c00160405280600115158152602001600081526020018481526020018481526020018673ffffffffffffffffffffffffffffffffffffffff168152602001858152509050806002600084815260200190815260200160002060008201518160000160006101000a81548160ff02191690831515021790555060208201518160010155604082015181600201556060820151816003015560808201518160040160006101000a81548173ffffffffffffffffffffffffffffffffffffffff021916908373ffffffffffffffffffffffffffffffffffffffff16021790555060a0820151816005019080519060200190610fd2929190612167565b50905050600381908060018154018082558091505060019003906000526020600020906006020160009091909190915060008201518160000160006101000a81548160ff02191690831515021790555060208201518160010155604082015181600201556060820151816003015560808201518160040160006101000a81548173ffffffffffffffffffffffffffffffffffffffff021916908373ffffffffffffffffffffffffffffffffffffffff16021790555060a08201518160050190805190602001906110a3929190612167565b505050600460008154809291906110b990612f49565b91905055505050505050565b600160009054906101000a900473ffffffffffffffffffffffffffffffffffffffff1681565b6000606060008060008060006111028a8a8a611fcb565b90506000600260008381526020019081526020016000206040518060c00160405290816000820160009054906101000a900460ff161515151581526020016001820154815260200160028201548152602001600382015481526020016004820160009054906101000a900473ffffffffffffffffffffffffffffffffffffffff1673ffffffffffffffffffffffffffffffffffffffff1673ffffffffffffffffffffffffffffffffffffffff1681526020016005820180546111c390612ee6565b80601f01602080910402602001604051908101604052809291908181526020018280546111ef90612ee6565b801561123c5780601f106112115761010080835404028352916020019161123c565b820191906000526020600020905b81548152906001019060200180831161121f57829003601f168201915b5050505050815250509050806080015197508060a00151965080604001519550806060015194508060200151935080600001519250505093975093979195509350565b6112876121ed565b600660003373ffffffffffffffffffffffffffffffffffffffff1673ffffffffffffffffffffffffffffffffffffffff16815260200190815260200160002060000160009054906101000a900460ff16611316576040517f08c379a000000000000000000000000000000000000000000000000000000000815260040161130d90612c48565b60405180910390fd5b600660003373ffffffffffffffffffffffffffffffffffffffff1673ffffffffffffffffffffffffffffffffffffffff1681526020019081526020016000206001016003806020026040519081016040528092919082600380156113b5576020028201916000905b82829054906101000a900460ff1660ff168152602001906001019060208260000104928301926001038202915080841161137e5790505b5050505050905090565b60085481565b670de0b6b3a764000081565b60008054906101000a900473ffffffffffffffffffffffffffffffffffffffff1673ffffffffffffffffffffffffffffffffffffffff163373ffffffffffffffffffffffffffffffffffffffff161461145f576040517f08c379a000000000000000000000000000000000000000000000000000000000815260040161145690612c88565b60405180910390fd5b600160009054906101000a900473ffffffffffffffffffffffffffffffffffffffff1673ffffffffffffffffffffffffffffffffffffffff16632c388d5d826040518263ffffffff1660e01b81526004016114ba919061296b565b600060405180830381600087803b1580156114d457600080fd5b505af11580156114e8573d6000803e3d6000fd5b5050505050565b60008060009054906101000a900473ffffffffffffffffffffffffffffffffffffffff16905090565b6000600160009054906101000a900473ffffffffffffffffffffffffffffffffffffffff1673ffffffffffffffffffffffffffffffffffffffff1663cd905dff6040518163ffffffff1660e01b815260040160206040518083038186803b15801561158257600080fd5b505afa158015611596573d6000803e3d6000fd5b505050506040513d601f19601f820116820180604052508101906115ba919061242e565b905090565b6000600160009054906101000a900473ffffffffffffffffffffffffffffffffffffffff1673ffffffffffffffffffffffffffffffffffffffff1663f7c61aeb6040518163ffffffff1660e01b8152600401602060405180830381600087803b15801561162b57600080fd5b505af115801561163f573d6000803e3d6000fd5b505050506040513d601f19601f82011682018060405250810190611663919061242e565b905090565b6000611675848484611fcb565b90506002600082815260200190815260200160002060000160009054906101000a900460ff166116da576040517f08c379a00000000000000000000000000000000000000000000000000000000081526004016116d190612d08565b60405180910390fd5b60006116e533612001565b90506000818686866040516020016117009493929190612921565b604051602081830303815290604052805190602001209050336009600083815260200190815260200160002060000160006101000a81548173ffffffffffffffffffffffffffffffffffffffff021916908373ffffffffffffffffffffffffffffffffffffffff16021790555060016009600083815260200190815260200160002060000160146101000a81548160ff0219169083151502179055508160ff167f3ed01f2c3fc24c6b329d931e35b03e390d23497d22b3f90e15b600343e93df118787876040516117d393929190612986565b60405180910390a2505050505050565b6117eb611518565b61182a576040517f08c379a000000000000000000000000000000000000000000000000000000000815260040161182190612c28565b60405180910390fd5b6000611837858585611fcb565b90506002600082815260200190815260200160002060000160009054906101000a900460ff1661189c576040517f08c379a000000000000000000000000000000000000000000000000000000000815260040161189390612be8565b60405180910390fd5b600080600090505b600380549050811015611b3c5760006119d5600383815481106118ca576118c96130c4565b5b906000526020600020906006020160040160009054906101000a900473ffffffffffffffffffffffffffffffffffffffff16600384815481106119105761190f6130c4565b5b9060005260206000209060060201600501805461192c90612ee6565b80601f016020809104026020016040519081016040528092919081815260200182805461195890612ee6565b80156119a55780601f1061197a576101008083540402835291602001916119a5565b820191906000526020600020905b81548152906001019060200180831161198857829003601f168201915b5050505050600385815481106119be576119bd6130c4565b5b906000526020600020906006020160020154611fcb565b905080841415611b28578460026000868152602001908152602001600020600101819055504260026000868152602001908152602001600020600301819055506002600085815260200190815260200160002060038381548110611a3c57611a3b6130c4565b5b90600052602060002090600602016000820160009054906101000a900460ff168160000160006101000a81548160ff0219169083151502179055506001820154816001015560028201548160020155600382015481600301556004820160009054906101000a900473ffffffffffffffffffffffffffffffffffffffff168160040160006101000a81548173ffffffffffffffffffffffffffffffffffffffff021916908373ffffffffffffffffffffffffffffffffffffffff1602179055506005820181600501908054611b1090612ee6565b611b1b92919061220f565b5090505081925050611b3c565b508080611b3490612f49565b9150506118a4565b5060006009600084815260200190815260200160002060000160146101000a81548160ff0219169083151502179055508360026000848152602001908152602001600020600301541115611da05760006002600084815260200190815260200160002060000160006101000a81548160ff0219169083151502179055506002600083815260200190815260200160002060038281548110611be057611bdf6130c4565b5b90600052602060002090600602016000820160009054906101000a900460ff168160000160006101000a81548160ff0219169083151502179055506001820154816001015560028201548160020155600382015481600301556004820160009054906101000a900473ffffffffffffffffffffffffffffffffffffffff168160040160006101000a81548173ffffffffffffffffffffffffffffffffffffffff021916908373ffffffffffffffffffffffffffffffffffffffff1602179055506005820181600501908054611cb490612ee6565b611cbf92919061220f565b509050506014831415611d5e57600160009054906101000a900473ffffffffffffffffffffffffffffffffffffffff1673ffffffffffffffffffffffffffffffffffffffff1663f578ac3f8688876040518463ffffffff1660e01b8152600401611d2b93929190612b8a565b600060405180830381600087803b158015611d4557600080fd5b505af1158015611d59573d6000803e3d6000fd5b505050505b7f75c2040c72f2c8521a5121e501d281b3198b21240d9f693d093aa4d54c81535e86868686604051611d9394939291906129c4565b60405180910390a1611ddc565b7f39b4784319fee76d98d113f6ed64fbca513c8fd31882f2f1cefeb10cd2d3d001868686604051611dd393929190612986565b60405180910390a15b505050505050565b611dec6121ed565b611df46121ed565b611dfd83612001565b81600060038110611e1157611e106130c4565b5b602002019060ff16908160ff168152505080600060038110611e3657611e356130c4565b5b602002015181600160038110611e4f57611e4e6130c4565b5b602002019060ff16908160ff16815250505b80600060038110611e7557611e746130c4565b5b602002015160ff1681600160038110611e9157611e906130c4565b5b602002015160ff161415611ed257611ea883612001565b81600160038110611ebc57611ebb6130c4565b5b602002019060ff16908160ff1681525050611e61565b80600160038110611ee657611ee56130c4565b5b602002015181600260038110611eff57611efe6130c4565b5b602002019060ff16908160ff16815250505b80600060038110611f2557611f246130c4565b5b602002015160ff1681600260038110611f4157611f406130c4565b5b602002015160ff161480611f8a575080600160038110611f6457611f636130c4565b5b602002015160ff1681600260038110611f8057611f7f6130c4565b5b602002015160ff16145b15611fc257611f9883612001565b81600260038110611fac57611fab6130c4565b5b602002019060ff16908160ff1681525050611f11565b80915050919050565b6000838383604051602001611fe2939291906128bc565b6040516020818303038152906040528051906020012090509392505050565b6000806008905060008160ff166005600081819054906101000a900460ff168092919061202d90612f92565b91906101000a81548160ff021916908360ff16021790555060ff16436120539190612ded565b40856040516020016120669291906128f5565b6040516020818303038152906040528051906020012060001c6120899190613006565b905060fa600560009054906101000a900460ff1660ff1611156120c3576000600560006101000a81548160ff021916908360ff1602179055505b8092505050919050565b826003601f016020900481019282156121565791602002820160005b8382111561212757835183826101000a81548160ff021916908360ff16021790555092602001926001016020816000010492830192600103026120e9565b80156121545782816101000a81549060ff0219169055600101602081600001049283019260010302612127565b505b509050612163919061229c565b5090565b82805461217390612ee6565b90600052602060002090601f01602090048101928261219557600085556121dc565b82601f106121ae57805160ff19168380011785556121dc565b828001600101855582156121dc579182015b828111156121db5782518255916020019190600101906121c0565b5b5090506121e9919061229c565b5090565b6040518060600160405280600390602082028036833780820191505090505090565b82805461221b90612ee6565b90600052602060002090601f01602090048101928261223d576000855561228b565b82601f1061224e578054855561228b565b8280016001018555821561228b57600052602060002091601f016020900482015b8281111561228a57825482559160010191906001019061226f565b5b509050612298919061229c565b5090565b5b808211156122b557600081600090555060010161229d565b5090565b60006122cc6122c784612d68565b612d43565b9050828152602081018484840111156122e8576122e7613127565b5b6122f3848285612ea4565b509392505050565b60008135905061230a81613396565b92915050565b60008151905061231f816133ad565b92915050565b600082601f83011261233a57612339613122565b5b813561234a8482602086016122b9565b91505092915050565b600081359050612362816133c4565b92915050565b600081519050612377816133c4565b92915050565b60008135905061238c816133db565b92915050565b6000602082840312156123a8576123a7613131565b5b60006123b6848285016122fb565b91505092915050565b6000806000606084860312156123d8576123d7613131565b5b60006123e6868287016122fb565b935050602084013567ffffffffffffffff8111156124075761240661312c565b5b61241386828701612325565b925050604061242486828701612353565b9150509250925092565b60006020828403121561244457612443613131565b5b600061245284828501612310565b91505092915050565b6000806040838503121561247257612471613131565b5b600061248085828601612310565b925050602061249185828601612368565b9150509250929050565b600080604083850312156124b2576124b1613131565b5b600083013567ffffffffffffffff8111156124d0576124cf61312c565b5b6124dc85828601612325565b92505060206124ed858286016122fb565b9150509250929050565b60006020828403121561250d5761250c613131565b5b600061251b84828501612353565b91505092915050565b600080600080600060a086880312156125405761253f613131565b5b600061254e8882890161237d565b955050602061255f888289016122fb565b945050604086013567ffffffffffffffff8111156125805761257f61312c565b5b61258c88828901612325565b935050606061259d88828901612353565b92505060806125ae88828901612353565b9150509295509295909350565b60006125c78383612896565b60208301905092915050565b6125dc81612e21565b82525050565b6125f36125ee82612e21565b612fbc565b82525050565b61260281612da3565b61260c8184612dc6565b925061261782612d99565b8060005b8381101561264857815161262f87826125bb565b965061263a83612db9565b92505060018101905061261b565b505050505050565b61265981612e33565b82525050565b61267061266b82612e3f565b612fce565b82525050565b61267f81612e80565b82525050565b600061269082612dae565b61269a8185612dd1565b93506126aa818560208601612eb3565b6126b381613136565b840191505092915050565b60006126c982612dae565b6126d38185612de2565b93506126e3818560208601612eb3565b80840191505092915050565b60006126fc602f83612dd1565b915061270782613161565b604082019050919050565b600061271f601583612dd1565b915061272a826131b0565b602082019050919050565b6000612742601c83612dd1565b915061274d826131d9565b602082019050919050565b6000612765601f83612dd1565b915061277082613202565b602082019050919050565b6000612788601b83612dd1565b91506127938261322b565b602082019050919050565b60006127ab602583612dd1565b91506127b682613254565b604082019050919050565b60006127ce601c83612dd1565b91506127d9826132a3565b602082019050919050565b60006127f1601c83612dd1565b91506127fc826132cc565b602082019050919050565b6000612814602383612dd1565b915061281f826132f5565b604082019050919050565b6000612837601383612dd1565b915061284282613344565b602082019050919050565b600061285a601783612dd1565b91506128658261336d565b602082019050919050565b61287981612e69565b82525050565b61289061288b82612e69565b612fea565b82525050565b61289f81612e73565b82525050565b6128b66128b182612e73565b612ff4565b82525050565b60006128c882866125e2565b6014820191506128d882856126be565b91506128e4828461287f565b602082019150819050949350505050565b6000612901828561265f565b60208201915061291182846125e2565b6014820191508190509392505050565b600061292d82876128a5565b60018201915061293d82866125e2565b60148201915061294d82856126be565b9150612959828461287f565b60208201915081905095945050505050565b600060208201905061298060008301846125d3565b92915050565b600060608201905061299b60008301866125d3565b81810360208301526129ad8185612685565b90506129bc6040830184612870565b949350505050565b60006080820190506129d960008301876125d3565b81810360208301526129eb8186612685565b90506129fa6040830185612870565b612a076060830184612870565b95945050505050565b600060a082019050612a2560008301886125d3565b8181036020830152612a378187612685565b9050612a466040830186612870565b612a536060830185612870565b612a6060808301846125d3565b9695505050505050565b600060c082019050612a7f60008301896125d3565b8181036020830152612a918188612685565b9050612aa06040830187612870565b612aad6060830186612870565b612aba6080830185612870565b612ac760a0830184612650565b979650505050505050565b6000606082019050612ae760008301846125f9565b92915050565b6000602082019050612b026000830184612650565b92915050565b6000604082019050612b1d6000830185612650565b612b2a6020830184612870565b9392505050565b6000602082019050612b466000830184612676565b92915050565b60006060820190508181036000830152612b668186612685565b9050612b7560208301856125d3565b612b8260408301846125d3565b949350505050565b60006060820190508181036000830152612ba48186612685565b9050612bb360208301856125d3565b612bc06040830184612870565b949350505050565b60006020820190508181036000830152612be1816126ef565b9050919050565b60006020820190508181036000830152612c0181612712565b9050919050565b60006020820190508181036000830152612c2181612735565b9050919050565b60006020820190508181036000830152612c4181612758565b9050919050565b60006020820190508181036000830152612c618161277b565b9050919050565b60006020820190508181036000830152612c818161279e565b9050919050565b60006020820190508181036000830152612ca1816127c1565b9050919050565b60006020820190508181036000830152612cc1816127e4565b9050919050565b60006020820190508181036000830152612ce181612807565b9050919050565b60006020820190508181036000830152612d018161282a565b9050919050565b60006020820190508181036000830152612d218161284d565b9050919050565b6000602082019050612d3d6000830184612870565b92915050565b6000612d4d612d5e565b9050612d598282612f18565b919050565b6000604051905090565b600067ffffffffffffffff821115612d8357612d826130f3565b5b612d8c82613136565b9050602081019050919050565b6000819050919050565b600060039050919050565b600081519050919050565b6000602082019050919050565b600081905092915050565b600082825260208201905092915050565b600081905092915050565b6000612df882612e69565b9150612e0383612e69565b925082821015612e1657612e15613037565b5b828203905092915050565b6000612e2c82612e49565b9050919050565b60008115159050919050565b6000819050919050565b600073ffffffffffffffffffffffffffffffffffffffff82169050919050565b6000819050919050565b600060ff82169050919050565b6000612e8b82612e92565b9050919050565b6000612e9d82612e49565b9050919050565b82818337600083830152505050565b60005b83811015612ed1578082015181840152602081019050612eb6565b83811115612ee0576000848401525b50505050565b60006002820490506001821680612efe57607f821691505b60208210811415612f1257612f11613095565b5b50919050565b612f2182613136565b810181811067ffffffffffffffff82111715612f4057612f3f6130f3565b5b80604052505050565b6000612f5482612e69565b91507fffffffffffffffffffffffffffffffffffffffffffffffffffffffffffffffff821415612f8757612f86613037565b5b600182019050919050565b6000612f9d82612e73565b915060ff821415612fb157612fb0613037565b5b600182019050919050565b6000612fc782612fd8565b9050919050565b6000819050919050565b6000612fe382613154565b9050919050565b6000819050919050565b6000612fff82613147565b9050919050565b600061301182612e69565b915061301c83612e69565b92508261302c5761302b613066565b5b828206905092915050565b7f4e487b7100000000000000000000000000000000000000000000000000000000600052601160045260246000fd5b7f4e487b7100000000000000000000000000000000000000000000000000000000600052601260045260246000fd5b7f4e487b7100000000000000000000000000000000000000000000000000000000600052602260045260246000fd5b7f4e487b7100000000000000000000000000000000000000000000000000000000600052603260045260246000fd5b7f4e487b7100000000000000000000000000000000000000000000000000000000600052604160045260246000fd5b600080fd5b600080fd5b600080fd5b600080fd5b6000601f19601f8301169050919050565b60008160f81b9050919050565b60008160601b9050919050565b7f466c69676874206f722074696d657374616d7020646f206e6f74206d6174636860008201527f206f7261636c6520726571756573740000000000000000000000000000000000602082015250565b7f466c69676874206e6f7420726567697374657265640000000000000000000000600082015250565b7f4f7261636c6520697320616c7265616479207265676973746572656400000000600082015250565b7f556e61626c6520746f2070726f636365737320617420746869732074696d6500600082015250565b7f4e6f74207265676973746572656420617320616e206f7261636c650000000000600082015250565b7f436f6e74726163742069732063757272656e746c79206e6f74206f706572617460008201527f696f6e616c000000000000000000000000000000000000000000000000000000602082015250565b7f43616c6c6572206973206e6f7420636f6e7472616374206f776e657200000000600082015250565b7f526567697374726174696f6e2066656520697320726571756972656400000000600082015250565b7f496e64657820646f6573206e6f74206d61746368206f7261636c65207265717560008201527f6573740000000000000000000000000000000000000000000000000000000000602082015250565b7f496e646578206f7574206f6620626f756e647300000000000000000000000000600082015250565b7f466c696768742069736e27742072656769737465726564000000000000000000600082015250565b61339f81612e21565b81146133aa57600080fd5b50565b6133b681612e33565b81146133c157600080fd5b50565b6133cd81612e69565b81146133d857600080fd5b50565b6133e481612e73565b81146133ef57600080fd5b5056fea2646970667358221220c042a99a4fd954646ad9f2da6f63eb482b9966389559445582e05ab4af0724bc64736f6c63430008060033",
  "immutableReferences": {},
  "source": "// SPDX-License-Identifier: MIT\n\npragma solidity ^0.8.0;\n\n/************************************************** */\n/* FlightSurety Smart Contract                      */\n/************************************************** */\ncontract FlightSuretyApp {\n\n    // SAFEMATH NOT REQUIRED FOR ANYTHING AFTER 0.8.0 //\n\n    /********************************************************************************************/\n    /*                                       DATA VARIABLES                                     */\n    /********************************************************************************************/\n\n    // Flight status codees\n    uint256 private constant STATUS_CODE_UNKNOWN = 0;\n    uint256 private constant STATUS_CODE_ON_TIME = 10;\n    uint256 private constant STATUS_CODE_LATE_AIRLINE = 20;\n    uint256 private constant STATUS_CODE_LATE_WEATHER = 30;\n    uint256 private constant STATUS_CODE_LATE_TECHNICAL = 40;\n    uint256 private constant STATUS_CODE_LATE_OTHER = 50;\n\n    address private contractOwner;\n\n    // DECLARE VARIABLE TO HOLD THE DATA CONTRACT //\n    IFlightSurety public flightSuretyData;\n\n    struct Flight {\n        bool isRegistered;\n        uint256 statusCode;\n        uint256 flightTime;\n        uint256 updatedTimestamp;        \n        address airline;\n        string flightNumber;\n    }\n    mapping(bytes32 => Flight) private flights;\n    Flight[] private allFlightList;\n    uint public flightCount;\n\n \n    /********************************************************************************************/\n    /*                                       FUNCTION MODIFIERS                                 */\n    /********************************************************************************************/\n\n    /**\n    * @dev Modifier that requires the \"operational\" boolean variable to be \"true\"\n    *      This is used on all state changing functions to pause the contract in \n    *      the event there is an issue that needs to be fixed\n    */\n    modifier requireIsOperational() \n    {\n        require(isOperational(), \"Contract is currently not operational\");  \n        _;\n    }\n\n    /**\n    * @dev Modifier that requires the \"ContractOwner\" account to be the function caller\n    */\n    modifier requireContractOwner()\n    {\n        require(msg.sender == contractOwner, \"Caller is not contract owner\");\n        _;\n    }\n\n    /********************************************************************************************/\n    /*                                       CONSTRUCTOR                                        */\n    /********************************************************************************************/\n\n    /**\n    * @dev Contract constructor\n    *\n    */\n    constructor(address payable contractAddress) {\n        contractOwner = msg.sender;\n        flightSuretyData = IFlightSurety(contractAddress);\n    }\n\n    /********************************************************************************************/\n    /*                                       UTILITY FUNCTIONS                                  */\n    /********************************************************************************************/\n\n    function isOperational() public view returns (bool) {\n        return flightSuretyData.isOperational();\n    }\n\n    function getAppOwner() external view returns(address) {\n        return contractOwner;\n    }\n\n    function authorizeContract(address _contractAddress) external requireContractOwner {\n      flightSuretyData.authorizeCaller(_contractAddress);\n    }\n\n    function isContractAuthorized() external returns (bool) {\n      return flightSuretyData.isContractAuthorized();\n    }\n\n    function getFlight(address _airline, string memory _flightNumber, uint256 _timeStamp)\n        external \n        view\n        returns (\n          address airline, \n          string memory flightNumber, \n          uint256 flightTime,\n          uint256 latestTimeStamp,\n          uint256 statusCode,\n          bool isRegistered\n          ){\n            bytes32 key = getFlightKey(_airline, _flightNumber, _timeStamp);\n            // require(flights[key].isRegistered, \"Flight not registered\");\n            Flight memory flight = flights[key];\n            airline = flight.airline;\n            flightNumber = flight.flightNumber;\n            flightTime = flight.flightTime;\n            latestTimeStamp = flight.updatedTimestamp;\n            statusCode = flight.statusCode;\n            isRegistered = flight.isRegistered;\n    }\n\n    function getFlight(uint index) \n      external \n      view \n      requireContractOwner\n      returns (\n        address airline,\n        string memory flightNumber,\n        uint256 flightTime,\n        uint256 latestTimestamp,\n        uint256 statusCode,\n        bool isRegistered\n        ){\n          require(index < flightCount, \"Index out of bounds\");\n          Flight memory flight = allFlightList[index];\n          airline = flight.airline;\n          flightNumber = flight.flightNumber;\n          flightTime = flight.flightTime;\n          latestTimestamp = flight.updatedTimestamp;\n          statusCode = flight.statusCode;\n          isRegistered = flight.isRegistered;\n        }\n\n\n    /********************************************************************************************/\n    /*                                     SMART CONTRACT FUNCTIONS                             */\n    /********************************************************************************************/\n\n  \n   /**\n    * @dev Add an airline to the registration queue\n    *\n    */   \n    function registerAirline(string memory _name, address _airline) \n      external \n      requireIsOperational\n      returns (bool success, uint votes) {\n\n        (success, votes) = flightSuretyData.registerAirline(_name, _airline, msg.sender);\n    }\n\n\n   /**\n    * @dev Register a future flight for insuring.\n    *\n    */  \n    function registerFlight(\n        address _airline, \n        string memory _flightNumber, \n        uint256 _timeStamp\n        ) \n        external requireIsOperational \n        {\n            require(flightSuretyData.isAirline(_airline));\n            bytes32 key = getFlightKey(_airline, _flightNumber, _timeStamp);\n            Flight memory newFlight = Flight(\n                {\n                    isRegistered: true,\n                    statusCode: STATUS_CODE_UNKNOWN,\n                    flightTime: _timeStamp,\n                    updatedTimestamp: _timeStamp,\n                    airline: _airline,\n                    flightNumber: _flightNumber\n                }\n            );\n            flights[key] = newFlight;\n            allFlightList.push(newFlight);\n            flightCount++;\n    }\n    \n    event FlightClosed(address airline, string flight, uint256 timestamp, uint256 statusCode);\n    event FlightUpdated(address airline, string flight, uint256 timestamp);\n   /**\n    * @dev Called after oracle has updated flight status\n    *\n    */  \n    function processFlightStatus(address airline, string memory flight, uint256 timestamp, uint256 statusCode)\n        internal {\n            require(isOperational(), \"Unable to proccess at this time\");\n            bytes32 key = getFlightKey(airline, flight, timestamp);\n            require(flights[key].isRegistered, \"Flight not registered\");\n            // UPDATE FLIGHT //\n            uint index;\n            for (uint i = 0; i < allFlightList.length; i++) {\n              bytes32 keyHash = getFlightKey(allFlightList[i].airline, allFlightList[i].flightNumber, allFlightList[i].flightTime);\n              if (key == keyHash) {\n                flights[key].statusCode = statusCode;\n                flights[key].updatedTimestamp = block.timestamp;\n                allFlightList[i] = flights[key];\n                index = i;\n                break;\n              }\n            }\n            oracleResponses[key].isOpen = false;\n            // CHECK IF THE CURRENT TIME IS PAST THE FLIGHT TIME //\n            if (flights[key].updatedTimestamp > timestamp) {\n                flights[key].isRegistered = false;\n                allFlightList[index] = flights[key];\n                if (statusCode == STATUS_CODE_LATE_AIRLINE) {\n                  flightSuretyData.creditInsurees(flight, airline, timestamp);\n                }\n                emit FlightClosed(airline, flight, timestamp, statusCode);\n            } else {\n              emit FlightUpdated(airline, flight, timestamp);\n            }\n    }\n\n\n    // Generate a request for oracles to fetch flight information\n    function fetchFlightStatus(address airline, string memory flight, uint256 timestamp) external {\n        // CHECK FLIGHT IS REGISTERED //\n        bytes32 flightKey = getFlightKey(airline, flight, timestamp);\n        require(flights[flightKey].isRegistered, \"Flight isn't registered\");\n\n        // GENERATE REQUEST //\n        uint8 index = getRandomIndex(msg.sender);\n        // Generate a unique key for storing the request\n        bytes32 key = keccak256(abi.encodePacked(index, airline, flight, timestamp));\n        oracleResponses[key].requester = msg.sender;\n        oracleResponses[key].isOpen = true;\n\n        // EMIT REQUEST //\n        emit OracleRequest(index, airline, flight, timestamp);\n    } \n\n\n\n                        //////////////////////////////\n                        // region ORACLE MANAGEMENT //\n                        //////////////////////////////\n\n    uint8 private nonce = 0;\n    uint256 public constant REGISTRATION_FEE = 1 ether;\n    uint256 private constant MIN_RESPONSES = 3;\n\n    struct Oracle {\n        bool isRegistered;\n        uint8[3] indexes;   \n    }\n\n    // Track all registered oracles\n    mapping(address => Oracle) private oracles;\n    address[] private oracleList;\n    uint public oracleCount;\n\n    // Model for responses from oracles\n    struct ResponseInfo {\n        address requester;\n        bool isOpen;\n    }\n\n    // Track all oracle responses\n    // Key = hash(index, flight, timestamp)\n    mapping(bytes32 => ResponseInfo) private oracleResponses;\n    // Track all response codes //\n    // Key = hash(index, flight, timestamp), key2 = responseCode, array = addresses with key2 //\n    mapping(bytes32 => mapping (uint256 => address[])) private responseCodes;\n\n    // Event fired each time an oracle submits a response\n    event FlightStatusInfo(address airline, string flight, uint256 timestamp, uint256 status);\n    event OracleReport(address airline, string flight, uint256 timestamp, uint256 status, address oracle);\n    event InsufficientData(address airline, string flight, uint256 timestamp, uint256 status, address oracle);\n    // Event fired when flight status request is submitted\n    // Oracles track this and if they have a matching index\n    // they fetch data and submit a response\n    event OracleRequest(uint8 indexed index, address airline, string flight, uint256 timestamp);\n\n\n    // Register an oracle with the contract\n    function registerOracle() external payable {\n        // Require registration fee\n        require(msg.value >= REGISTRATION_FEE, \"Registration fee is required\");\n        require(!oracles[msg.sender].isRegistered, \"Oracle is already registered\");\n        uint8[3] memory indexes = generateIndexes(msg.sender);\n        Oracle memory newOracle = Oracle(\n            {\n                isRegistered: true,\n                indexes: indexes\n            }\n        );\n        oracles[msg.sender] = newOracle;\n        oracleList.push(msg.sender);\n        oracleCount++;\n    }\n\n    function getOracle(uint index) external view returns (address oracleAddress) {\n        require(index < oracleCount, \"Index out of bounds\");\n        return oracleList[index];\n    }\n\n    function getMyIndexes() view external returns (uint8[3] memory) {\n        require(oracles[msg.sender].isRegistered, \"Not registered as an oracle\");\n\n        return oracles[msg.sender].indexes;\n    }\n\n    // Called by oracle when a response is available to an outstanding request\n    // For the response to be accepted, there must be a pending request that is open\n    // and matches one of the three Indexes randomly assigned to the oracle at the\n    // time of registration (i.e. uninvited oracles are not welcome)\n    function submitOracleResponse(\n      uint8 index, \n      address airline, \n      string memory flight, \n      uint256 timestamp, \n      uint256 statusCode) \n      external  {\n        require((oracles[msg.sender].indexes[0] == index) || \n                (oracles[msg.sender].indexes[1] == index) || \n                (oracles[msg.sender].indexes[2] == index), \n                \"Index does not match oracle request\");\n\n\n        bytes32 key = keccak256(abi.encodePacked(index, airline, flight, timestamp)); \n        require(oracleResponses[key].isOpen, \"Flight or timestamp do not match oracle request\");\n\n        responseCodes[key][statusCode].push(msg.sender);\n        emit OracleReport(airline, flight, timestamp, statusCode, msg.sender);\n\n        //// CHECK IF REQUIRED RESPONSES HAVE BEEN REACHED TO PROCCESS ////\n        //// AND ONLY PROCESS IF IT'S THE GREATEST NUMBER OF THE SAME CODE ////\n        if (responseCodes[key][statusCode].length >= MIN_RESPONSES) {\n\n            emit FlightStatusInfo(airline, flight, timestamp, statusCode);\n\n            // Handle flight status as appropriate\n            processFlightStatus(airline, flight, timestamp, statusCode);\n        } else {\n          emit InsufficientData(airline, flight, timestamp, statusCode, msg.sender);\n        }\n    }\n\n\n    function getFlightKey(address airline, string memory flight, uint256 timestamp) pure internal returns (bytes32) {\n        return keccak256(abi.encodePacked(airline, flight, timestamp));\n    }\n\n    // Returns array of three non-duplicating integers from 0-7\n    function generateIndexes(address account) internal returns (uint8[3] memory) {\n        uint8[3] memory indexes;\n        indexes[0] = getRandomIndex(account);\n        \n        indexes[1] = indexes[0];\n        while(indexes[1] == indexes[0]) {\n            indexes[1] = getRandomIndex(account);\n        }\n        indexes[2] = indexes[1];\n        while((indexes[2] == indexes[0]) || (indexes[2] == indexes[1])) {\n            indexes[2] = getRandomIndex(account);\n        }\n        return indexes;\n    }\n\n    // Returns array of three non-duplicating integers from 0-7\n    function getRandomIndex(address account) internal returns (uint8) {\n        uint8 maxValue = 8;\n\n        // Pseudo random number...the incrementing nonce adds variation\n        uint8 random = uint8(uint256(keccak256(abi.encodePacked(blockhash(block.number - nonce++), account))) % maxValue);\n\n        if (nonce > 250) {\n            nonce = 0;  // Can only fetch blockhashes for last 256 blocks so we adapt\n        }\n\n        return random;\n    }\n\n// endregion\n\n}\n\ninterface IFlightSurety {\n    function registerAirline(string memory _name, address _airline, address _caller) external \n        returns (bool success, uint votes);\n    function isOperational() external view returns (bool);\n    function creditInsurees(string memory _flightNumber, address _airline, uint256 _timestamp) external;\n    function isAirline(address _airline) external returns (bool);\n    function authorizeCaller(address _contractAddress) external;\n    function isContractAuthorized() external returns (bool);\n}\n",
  "sourcePath": "/Volumes/Samsung-Internal_1TB/CODE/blockChain/UDACITY-Nanodegree/FlightSurety/FlightSurety/contracts/FlightSuretyApp.sol",
  "compiler": {
    "name": "solc",
    "version": "0.8.6+commit.11564f7e.Emscripten.clang"
  },
  "schemaVersion": "3.4.6",
  "updatedAt": "2022-03-24T12:27:20.709Z",
  "networkType": "ethereum",
  "devdoc": {
    "kind": "dev",
    "methods": {
      "constructor": {
        "details": "Contract constructor"
      },
      "registerAirline(string,address)": {
        "details": "Add an airline to the registration queue"
      },
      "registerFlight(address,string,uint256)": {
        "details": "Register a future flight for insuring."
      }
    },
    "version": 1
  },
  "userdoc": {
    "kind": "user",
    "methods": {},
    "version": 1
  }
}