{
  "contractName": "FlightSuretyData",
  "abi": [
    {
      "inputs": [],
      "stateMutability": "nonpayable",
      "type": "constructor"
    },
    {
      "anonymous": false,
      "inputs": [
        {
          "indexed": false,
          "internalType": "address",
          "name": "airline",
          "type": "address"
        },
        {
          "indexed": false,
          "internalType": "uint256",
          "name": "votes",
          "type": "uint256"
        },
        {
          "indexed": false,
          "internalType": "uint256",
          "name": "votesTillApproved",
          "type": "uint256"
        }
      ],
      "name": "AirlineConsensusVote",
      "type": "event"
    },
    {
      "anonymous": false,
      "inputs": [
        {
          "indexed": false,
          "internalType": "address",
          "name": "airline",
          "type": "address"
        },
        {
          "indexed": false,
          "internalType": "string",
          "name": "name",
          "type": "string"
        }
      ],
      "name": "AirlineRegistration",
      "type": "event"
    },
    {
      "stateMutability": "payable",
      "type": "fallback",
      "payable": true
    },
    {
      "inputs": [
        {
          "internalType": "uint256",
          "name": "",
          "type": "uint256"
        }
      ],
      "name": "consensusList",
      "outputs": [
        {
          "internalType": "address",
          "name": "",
          "type": "address"
        }
      ],
      "stateMutability": "view",
      "type": "function",
      "constant": true
    },
    {
      "stateMutability": "payable",
      "type": "receive",
      "payable": true
    },
    {
      "inputs": [],
      "name": "getContractOwner",
      "outputs": [
        {
          "internalType": "address",
          "name": "",
          "type": "address"
        }
      ],
      "stateMutability": "view",
      "type": "function",
      "constant": true
    },
    {
      "inputs": [
        {
          "internalType": "address",
          "name": "_authAddress",
          "type": "address"
        }
      ],
      "name": "authorizeCaller",
      "outputs": [],
      "stateMutability": "nonpayable",
      "type": "function"
    },
    {
      "inputs": [],
      "name": "isContractAuthorized",
      "outputs": [
        {
          "internalType": "bool",
          "name": "",
          "type": "bool"
        }
      ],
      "stateMutability": "view",
      "type": "function",
      "constant": true
    },
    {
      "inputs": [],
      "name": "getInsuredFlights",
      "outputs": [
        {
          "internalType": "bytes32[]",
          "name": "",
          "type": "bytes32[]"
        }
      ],
      "stateMutability": "view",
      "type": "function",
      "constant": true
    },
    {
      "inputs": [
        {
          "internalType": "bytes32",
          "name": "flight",
          "type": "bytes32"
        }
      ],
      "name": "getInsuredCount",
      "outputs": [
        {
          "internalType": "uint256",
          "name": "",
          "type": "uint256"
        }
      ],
      "stateMutability": "view",
      "type": "function",
      "constant": true
    },
    {
      "inputs": [
        {
          "internalType": "bytes32",
          "name": "flight",
          "type": "bytes32"
        },
        {
          "internalType": "uint256",
          "name": "_index",
          "type": "uint256"
        }
      ],
      "name": "getInsuree",
      "outputs": [
        {
          "internalType": "address",
          "name": "customerAddress",
          "type": "address"
        },
        {
          "internalType": "address",
          "name": "airline",
          "type": "address"
        },
        {
          "internalType": "string",
          "name": "flightNumber",
          "type": "string"
        },
        {
          "internalType": "uint256",
          "name": "timestamp",
          "type": "uint256"
        },
        {
          "internalType": "uint256",
          "name": "balance",
          "type": "uint256"
        },
        {
          "internalType": "uint256",
          "name": "owed",
          "type": "uint256"
        }
      ],
      "stateMutability": "view",
      "type": "function",
      "constant": true
    },
    {
      "inputs": [],
      "name": "isOperational",
      "outputs": [
        {
          "internalType": "bool",
          "name": "",
          "type": "bool"
        }
      ],
      "stateMutability": "view",
      "type": "function",
      "constant": true
    },
    {
      "inputs": [
        {
          "internalType": "bool",
          "name": "mode",
          "type": "bool"
        }
      ],
      "name": "setOperatingStatus",
      "outputs": [],
      "stateMutability": "nonpayable",
      "type": "function"
    },
    {
      "inputs": [
        {
          "internalType": "address",
          "name": "_airline",
          "type": "address"
        }
      ],
      "name": "isAirline",
      "outputs": [
        {
          "internalType": "bool",
          "name": "",
          "type": "bool"
        }
      ],
      "stateMutability": "view",
      "type": "function",
      "constant": true
    },
    {
      "inputs": [],
      "name": "getRegisteredAirlines",
      "outputs": [
        {
          "internalType": "address[]",
          "name": "",
          "type": "address[]"
        }
      ],
      "stateMutability": "view",
      "type": "function",
      "constant": true
    },
    {
      "inputs": [
        {
          "internalType": "address",
          "name": "_airline",
          "type": "address"
        }
      ],
      "name": "getAirline",
      "outputs": [
        {
          "internalType": "address",
          "name": "_airlineAddress",
          "type": "address"
        },
        {
          "internalType": "string",
          "name": "_name",
          "type": "string"
        },
        {
          "internalType": "bool",
          "name": "_isRegistered",
          "type": "bool"
        },
        {
          "internalType": "bool",
          "name": "_canParticipate",
          "type": "bool"
        },
        {
          "internalType": "uint256",
          "name": "_numberOfPayouts",
          "type": "uint256"
        }
      ],
      "stateMutability": "view",
      "type": "function",
      "constant": true
    },
    {
      "inputs": [],
      "name": "getConsensusList",
      "outputs": [
        {
          "internalType": "address[]",
          "name": "",
          "type": "address[]"
        }
      ],
      "stateMutability": "view",
      "type": "function",
      "constant": true
    },
    {
      "inputs": [
        {
          "internalType": "address",
          "name": "_airline",
          "type": "address"
        }
      ],
      "name": "getNumVotes",
      "outputs": [
        {
          "internalType": "uint256",
          "name": "",
          "type": "uint256"
        }
      ],
      "stateMutability": "view",
      "type": "function",
      "constant": true
    },
    {
      "inputs": [
        {
          "internalType": "string",
          "name": "_name",
          "type": "string"
        },
        {
          "internalType": "address",
          "name": "_airline",
          "type": "address"
        },
        {
          "internalType": "address",
          "name": "_caller",
          "type": "address"
        }
      ],
      "name": "registerAirline",
      "outputs": [
        {
          "internalType": "bool",
          "name": "success",
          "type": "bool"
        },
        {
          "internalType": "uint256",
          "name": "votes",
          "type": "uint256"
        }
      ],
      "stateMutability": "nonpayable",
      "type": "function"
    },
    {
      "inputs": [
        {
          "internalType": "string",
          "name": "_flightNumber",
          "type": "string"
        },
        {
          "internalType": "address",
          "name": "_airline",
          "type": "address"
        },
        {
          "internalType": "uint256",
          "name": "_timestamp",
          "type": "uint256"
        }
      ],
      "name": "buy",
      "outputs": [
        {
          "internalType": "bytes32",
          "name": "flightHash",
          "type": "bytes32"
        },
        {
          "internalType": "uint256",
          "name": "id",
          "type": "uint256"
        }
      ],
      "stateMutability": "payable",
      "type": "function",
      "payable": true
    },
    {
      "inputs": [
        {
          "internalType": "string",
          "name": "_flightNumber",
          "type": "string"
        },
        {
          "internalType": "address",
          "name": "_airline",
          "type": "address"
        },
        {
          "internalType": "uint256",
          "name": "_timestamp",
          "type": "uint256"
        }
      ],
      "name": "creditInsurees",
      "outputs": [],
      "stateMutability": "nonpayable",
      "type": "function"
    },
    {
      "inputs": [
        {
          "internalType": "bytes32",
          "name": "_flight",
          "type": "bytes32"
        },
        {
          "internalType": "uint256",
          "name": "_index",
          "type": "uint256"
        }
      ],
      "name": "pay",
      "outputs": [],
      "stateMutability": "nonpayable",
      "type": "function"
    },
    {
      "inputs": [],
      "name": "fund",
      "outputs": [],
      "stateMutability": "payable",
      "type": "function",
      "payable": true
    }
  ],
  "bytecode": "0x60806040526001600060146101000a81548160ff0219169083151502179055503480156200002c57600080fd5b50336000806101000a81548173ffffffffffffffffffffffffffffffffffffffff021916908373ffffffffffffffffffffffffffffffffffffffff16021790555060405180608001604052806040518060400160405280600281526020017f424100000000000000000000000000000000000000000000000000000000000081525081526020016001151581526020016000151581526020016000815250600560003373ffffffffffffffffffffffffffffffffffffffff1673ffffffffffffffffffffffffffffffffffffffff168152602001908152602001600020600082015181600001908051906020019062000127929190620001e6565b5060208201518160010160006101000a81548160ff02191690831515021790555060408201518160010160016101000a81548160ff021916908315150217905550606082015181600201559050506003339080600181540180825580915050600190039060005260206000200160009091909190916101000a81548173ffffffffffffffffffffffffffffffffffffffff021916908373ffffffffffffffffffffffffffffffffffffffff1602179055506000600481905550620002fb565b828054620001f49062000296565b90600052602060002090601f01602090048101928262000218576000855562000264565b82601f106200023357805160ff191683800117855562000264565b8280016001018555821562000264579182015b828111156200026357825182559160200191906001019062000246565b5b50905062000273919062000277565b5090565b5b808211156200029257600081600090555060010162000278565b5090565b60006002820490506001821680620002af57607f821691505b60208210811415620002c657620002c5620002cc565b5b50919050565b7f4e487b7100000000000000000000000000000000000000000000000000000000600052602260045260246000fd5b6138fb806200030b6000396000f3fe6080604052600436106101185760003560e01c80638400729e116100a0578063cd905dff11610064578063cd905dff146103de578063d0ee4de014610409578063e1de048914610432578063f578ac3f14610473578063f7c61aeb1461049c57610127565b80638400729e1461031557806386cde64614610353578063af34f9271461037e578063b60d4288146103a9578063c23bcf09146103b357610127565b8063442890d5116100e7578063442890d514610202578063460651fa1461022d578063461094f71461026a5780637782ec50146102a757806380dd9fd4146102d857610127565b80630e248a1114610131578063110466ed1461016e578063161e7f9c146101975780632c388d5d146101d957610127565b36610127576101256104c7565b005b61012f6104c7565b005b34801561013d57600080fd5b506101586004803603810190610153919061262b565b6106a8565b6040516101659190612def565b60405180910390f35b34801561017a57600080fd5b5061019560048036038101906101909190612658565b610701565b005b3480156101a357600080fd5b506101be60048036038101906101b991906126b2565b61083f565b6040516101d096959493929190612c82565b60405180910390f35b3480156101e557600080fd5b5061020060048036038101906101fb919061262b565b610a74565b005b34801561020e57600080fd5b50610217610c45565b6040516102249190612c67565b60405180910390f35b34801561023957600080fd5b50610254600480360381019061024f9190612685565b610c6e565b604051610261919061307c565b60405180910390f35b34801561027657600080fd5b50610291600480360381019061028c919061262b565b610c8e565b60405161029e919061307c565b60405180910390f35b6102c160048036038101906102bc9190612761565b610cda565b6040516102cf929190612e33565b60405180910390f35b3480156102e457600080fd5b506102ff60048036038101906102fa91906127d0565b6110fd565b60405161030c9190612c67565b60405180910390f35b34801561032157600080fd5b5061033c600480360381019061033791906126f2565b61113c565b60405161034a929190612e0a565b60405180910390f35b34801561035f57600080fd5b50610368611d16565b6040516103759190612dcd565b60405180910390f35b34801561038a57600080fd5b50610393611d6e565b6040516103a09190612dab565b60405180910390f35b6103b16104c7565b005b3480156103bf57600080fd5b506103c8611dfc565b6040516103d59190612dab565b60405180910390f35b3480156103ea57600080fd5b506103f3611e8a565b6040516104009190612def565b60405180910390f35b34801561041557600080fd5b50610430600480360381019061042b91906126b2565b611ea0565b005b34801561043e57600080fd5b506104596004803603810190610454919061262b565b6120a0565b60405161046a959493929190612d1a565b60405180910390f35b34801561047f57600080fd5b5061049a60048036038101906104959190612761565b6121b6565b005b3480156104a857600080fd5b506104b1612411565b6040516104be9190612def565b60405180910390f35b33600560008273ffffffffffffffffffffffffffffffffffffffff1673ffffffffffffffffffffffffffffffffffffffff16815260200190815260200160002060010160009054906101000a900460ff16610557576040517f08c379a000000000000000000000000000000000000000000000000000000000815260040161054e90612fbc565b60405180910390fd5b678ac7230489e800003410156105a2576040517f08c379a00000000000000000000000000000000000000000000000000000000081526004016105999061301c565b60405180910390fd5b600560003373ffffffffffffffffffffffffffffffffffffffff1673ffffffffffffffffffffffffffffffffffffffff16815260200190815260200160002060010160019054906101000a900460ff1615610632576040517f08c379a000000000000000000000000000000000000000000000000000000000815260040161062990612e5c565b60405180910390fd5b6001600560003373ffffffffffffffffffffffffffffffffffffffff1673ffffffffffffffffffffffffffffffffffffffff16815260200190815260200160002060010160016101000a81548160ff021916908315150217905550600460008154809291906106a090613338565b919050555050565b6000600560008373ffffffffffffffffffffffffffffffffffffffff1673ffffffffffffffffffffffffffffffffffffffff16815260200190815260200160002060010160019054906101000a900460ff169050919050565b600160000160009054906101000a900473ffffffffffffffffffffffffffffffffffffffff1673ffffffffffffffffffffffffffffffffffffffff163373ffffffffffffffffffffffffffffffffffffffff1614610794576040517f08c379a000000000000000000000000000000000000000000000000000000000815260040161078b9061305c565b60405180910390fd5b60008054906101000a900473ffffffffffffffffffffffffffffffffffffffff1673ffffffffffffffffffffffffffffffffffffffff163373ffffffffffffffffffffffffffffffffffffffff1614610822576040517f08c379a000000000000000000000000000000000000000000000000000000000815260040161081990612f5c565b60405180910390fd5b80600060146101000a81548160ff02191690831515021790555050565b60008060606000806000600860008981526020019081526020016000208054905087106108a1576040517f08c379a000000000000000000000000000000000000000000000000000000000815260040161089890612edc565b60405180910390fd5b6000600860008a815260200190815260200160002088815481106108c8576108c761343c565b5b90600052602060002090600602016040518060c00160405290816000820160009054906101000a900473ffffffffffffffffffffffffffffffffffffffff1673ffffffffffffffffffffffffffffffffffffffff1673ffffffffffffffffffffffffffffffffffffffff1681526020016001820160009054906101000a900473ffffffffffffffffffffffffffffffffffffffff1673ffffffffffffffffffffffffffffffffffffffff1673ffffffffffffffffffffffffffffffffffffffff16815260200160028201805461099d906132d5565b80601f01602080910402602001604051908101604052809291908181526020018280546109c9906132d5565b8015610a165780601f106109eb57610100808354040283529160200191610a16565b820191906000526020600020905b8154815290600101906020018083116109f957829003601f168201915b505050505081526020016003820154815260200160048201548152602001600582015481525050905080600001519650806020015195508060400151945080606001519350806080015192508060a001519150509295509295509295565b600073ffffffffffffffffffffffffffffffffffffffff16600160000160009054906101000a900473ffffffffffffffffffffffffffffffffffffffff1673ffffffffffffffffffffffffffffffffffffffff1614610bbb573373ffffffffffffffffffffffffffffffffffffffff16600160000160009054906101000a900473ffffffffffffffffffffffffffffffffffffffff1673ffffffffffffffffffffffffffffffffffffffff161480610b7b57503373ffffffffffffffffffffffffffffffffffffffff166001800160009054906101000a900473ffffffffffffffffffffffffffffffffffffffff1673ffffffffffffffffffffffffffffffffffffffff16145b610bba576040517f08c379a0000000000000000000000000000000000000000000000000000000008152600401610bb19061303c565b60405180910390fd5b5b80600160000160006101000a81548173ffffffffffffffffffffffffffffffffffffffff021916908373ffffffffffffffffffffffffffffffffffffffff160217905550336001800160006101000a81548173ffffffffffffffffffffffffffffffffffffffff021916908373ffffffffffffffffffffffffffffffffffffffff16021790555050565b60008060009054906101000a900473ffffffffffffffffffffffffffffffffffffffff16905090565b600060086000838152602001908152602001600020805490509050919050565b6000600660008373ffffffffffffffffffffffffffffffffffffffff1673ffffffffffffffffffffffffffffffffffffffff168152602001908152602001600020805490509050919050565b600080600060149054906101000a900460ff16610d2c576040517f08c379a0000000000000000000000000000000000000000000000000000000008152600401610d2390612f1c565b60405180910390fd5b670de0b6b3a76400003411158015610d445750600034115b610d83576040517f08c379a0000000000000000000000000000000000000000000000000000000008152600401610d7a90612f9c565b60405180910390fd5b83600560008273ffffffffffffffffffffffffffffffffffffffff1673ffffffffffffffffffffffffffffffffffffffff16815260200190815260200160002060010160009054906101000a900460ff16610e13576040517f08c379a0000000000000000000000000000000000000000000000000000000008152600401610e0a90612fbc565b60405180910390fd5b610e1e85878661246d565b92506000805b6008600086815260200190815260200160002080549050811015610ee8573373ffffffffffffffffffffffffffffffffffffffff16600860008781526020019081526020016000208281548110610e7e57610e7d61343c565b5b906000526020600020906006020160000160009054906101000a900473ffffffffffffffffffffffffffffffffffffffff1673ffffffffffffffffffffffffffffffffffffffff161415610ed55760019150610ee8565b8080610ee090613338565b915050610e24565b508015610f2a576040517f08c379a0000000000000000000000000000000000000000000000000000000008152600401610f2190612efc565b60405180910390fd5b60006040518060c001604052803373ffffffffffffffffffffffffffffffffffffffff1681526020018873ffffffffffffffffffffffffffffffffffffffff168152602001898152602001878152602001348152602001600081525090506008600086815260200190815260200160002081908060018154018082558091505060019003906000526020600020906006020160009091909190915060008201518160000160006101000a81548173ffffffffffffffffffffffffffffffffffffffff021916908373ffffffffffffffffffffffffffffffffffffffff16021790555060208201518160010160006101000a81548173ffffffffffffffffffffffffffffffffffffffff021916908373ffffffffffffffffffffffffffffffffffffffff160217905550604082015181600201908051906020019061106f9291906124a3565b50606082015181600301556080820151816004015560a0820151816005015550506002600860008781526020019081526020016000208054905010156110d95760098590806001815401808255809150506001900390600052602060002001600090919091909150555b60086000868152602001908152602001600020805490509350505050935093915050565b6007818154811061110d57600080fd5b906000526020600020016000915054906101000a900473ffffffffffffffffffffffffffffffffffffffff1681565b600080600060149054906101000a900460ff1661118e576040517f08c379a000000000000000000000000000000000000000000000000000000000815260040161118590612f1c565b60405180910390fd5b600160000160009054906101000a900473ffffffffffffffffffffffffffffffffffffffff1673ffffffffffffffffffffffffffffffffffffffff163373ffffffffffffffffffffffffffffffffffffffff1614611221576040517f08c379a00000000000000000000000000000000000000000000000000000000081526004016112189061305c565b60405180910390fd5b82600560008273ffffffffffffffffffffffffffffffffffffffff1673ffffffffffffffffffffffffffffffffffffffff16815260200190815260200160002060010160009054906101000a900460ff166112b1576040517f08c379a00000000000000000000000000000000000000000000000000000000081526004016112a890612fbc565b60405180910390fd5b83600560008273ffffffffffffffffffffffffffffffffffffffff1673ffffffffffffffffffffffffffffffffffffffff16815260200190815260200160002060010160019054906101000a900460ff16611341576040517f08c379a000000000000000000000000000000000000000000000000000000000815260040161133890612e7c565b60405180910390fd5b600560008773ffffffffffffffffffffffffffffffffffffffff1673ffffffffffffffffffffffffffffffffffffffff16815260200190815260200160002060010160009054906101000a900460ff16156113d1576040517f08c379a00000000000000000000000000000000000000000000000000000000081526004016113c890612fdc565b60405180910390fd5b6000875111801561140f5750600073ffffffffffffffffffffffffffffffffffffffff168673ffffffffffffffffffffffffffffffffffffffff1614155b61144e576040517f08c379a000000000000000000000000000000000000000000000000000000000815260040161144590612f7c565b60405180910390fd5b60046003805490501015611683578473ffffffffffffffffffffffffffffffffffffffff1660036000815481106114885761148761343c565b5b9060005260206000200160009054906101000a900473ffffffffffffffffffffffffffffffffffffffff1673ffffffffffffffffffffffffffffffffffffffff1614611509576040517f08c379a000000000000000000000000000000000000000000000000000000000815260040161150090612e9c565b60405180910390fd5b60405180608001604052808881526020016001151581526020016000151581526020016000815250600560008873ffffffffffffffffffffffffffffffffffffffff1673ffffffffffffffffffffffffffffffffffffffff168152602001908152602001600020600082015181600001908051906020019061158c9291906124a3565b5060208201518160010160006101000a81548160ff02191690831515021790555060408201518160010160016101000a81548160ff021916908315150217905550606082015181600201559050506003869080600181540180825580915050600190039060005260206000200160009091909190916101000a81548173ffffffffffffffffffffffffffffffffffffffff021916908373ffffffffffffffffffffffffffffffffffffffff1602179055507f2203f0826fed4cac6f1cacf05c38c5c7402495f0ef9916971d7a41e1fa923f11868860405161166e929190612cea565b60405180910390a16001935060019250611d0c565b6000805b600660008973ffffffffffffffffffffffffffffffffffffffff1673ffffffffffffffffffffffffffffffffffffffff1681526020019081526020016000208054905081101561179c578673ffffffffffffffffffffffffffffffffffffffff16600660008a73ffffffffffffffffffffffffffffffffffffffff1673ffffffffffffffffffffffffffffffffffffffff16815260200190815260200160002082815481106117395761173861343c565b5b9060005260206000200160009054906101000a900473ffffffffffffffffffffffffffffffffffffffff1673ffffffffffffffffffffffffffffffffffffffff161415611789576001915061179c565b808061179490613338565b915050611687565b5080156117de576040517f08c379a00000000000000000000000000000000000000000000000000000000081526004016117d590612f3c565b60405180910390fd5b6001600660008973ffffffffffffffffffffffffffffffffffffffff1673ffffffffffffffffffffffffffffffffffffffff16815260200190815260200160002080549050101561188d576007879080600181540180825580915050600190039060005260206000200160009091909190916101000a81548173ffffffffffffffffffffffffffffffffffffffff021916908373ffffffffffffffffffffffffffffffffffffffff1602179055505b600660008873ffffffffffffffffffffffffffffffffffffffff1673ffffffffffffffffffffffffffffffffffffffff168152602001908152602001600020869080600181540180825580915050600190039060005260206000200160009091909190916101000a81548173ffffffffffffffffffffffffffffffffffffffff021916908373ffffffffffffffffffffffffffffffffffffffff160217905550600660008873ffffffffffffffffffffffffffffffffffffffff1673ffffffffffffffffffffffffffffffffffffffff168152602001908152602001600020805490509350600260045461198191906131dc565b8410611c245760405180608001604052808981526020016001151581526020016000151581526020016000815250600560008973ffffffffffffffffffffffffffffffffffffffff1673ffffffffffffffffffffffffffffffffffffffff1681526020019081526020016000206000820151816000019080519060200190611a0a9291906124a3565b5060208201518160010160006101000a81548160ff02191690831515021790555060408201518160010160016101000a81548160ff021916908315150217905550606082015181600201559050506003879080600181540180825580915050600190039060005260206000200160009091909190916101000a81548173ffffffffffffffffffffffffffffffffffffffff021916908373ffffffffffffffffffffffffffffffffffffffff160217905550600660008873ffffffffffffffffffffffffffffffffffffffff1673ffffffffffffffffffffffffffffffffffffffff1681526020019081526020016000206000611b069190612529565b60005b600780549050811015611be1578773ffffffffffffffffffffffffffffffffffffffff1660078281548110611b4157611b4061343c565b5b9060005260206000200160009054906101000a900473ffffffffffffffffffffffffffffffffffffffff1673ffffffffffffffffffffffffffffffffffffffff161415611bce5760078181548110611b9c57611b9b61343c565b5b9060005260206000200160006101000a81549073ffffffffffffffffffffffffffffffffffffffff0219169055611be1565b8080611bd990613338565b915050611b09565b507f2203f0826fed4cac6f1cacf05c38c5c7402495f0ef9916971d7a41e1fa923f118789604051611c13929190612cea565b60405180910390a160019450611d0a565b6000600660008973ffffffffffffffffffffffffffffffffffffffff1673ffffffffffffffffffffffffffffffffffffffff168152602001908152602001600020805490506002600380549050611c7b91906131dc565b611c85919061320d565b90507f77957a1526bfe65afb8f1ca9dd03eb81e1488de5b661f93a7e58c3bda0464f7588600660008b73ffffffffffffffffffffffffffffffffffffffff1673ffffffffffffffffffffffffffffffffffffffff1681526020019081526020016000208054905083604051611cfc93929190612d74565b60405180910390a160009550505b505b5050935093915050565b60606009805480602002602001604051908101604052809291908181526020018280548015611d6457602002820191906000526020600020905b815481526020019060010190808311611d50575b5050505050905090565b60606007805480602002602001604051908101604052809291908181526020018280548015611df257602002820191906000526020600020905b8160009054906101000a900473ffffffffffffffffffffffffffffffffffffffff1673ffffffffffffffffffffffffffffffffffffffff1681526020019060010190808311611da8575b5050505050905090565b60606003805480602002602001604051908101604052809291908181526020018280548015611e8057602002820191906000526020600020905b8160009054906101000a900473ffffffffffffffffffffffffffffffffffffffff1673ffffffffffffffffffffffffffffffffffffffff1681526020019060010190808311611e36575b5050505050905090565b60008060149054906101000a900460ff16905090565b6000600860008481526020019081526020016000208281548110611ec757611ec661343c565b5b90600052602060002090600602016005015411611f19576040517f08c379a0000000000000000000000000000000000000000000000000000000008152600401611f1090612ffc565b60405180910390fd5b3373ffffffffffffffffffffffffffffffffffffffff16600860008481526020019081526020016000208281548110611f5557611f5461343c565b5b906000526020600020906006020160000160009054906101000a900473ffffffffffffffffffffffffffffffffffffffff1673ffffffffffffffffffffffffffffffffffffffff1614611fdd576040517f08c379a0000000000000000000000000000000000000000000000000000000008152600401611fd490612ebc565b60405180910390fd5b60006008600084815260200190815260200160002082815481106120045761200361343c565b5b9060005260206000209060060201600501549050600060086000858152602001908152602001600020838154811061203f5761203e61343c565b5b9060005260206000209060060201600501819055503373ffffffffffffffffffffffffffffffffffffffff166108fc829081150290604051600060405180830381858888f1935050505015801561209a573d6000803e3d6000fd5b50505050565b60006060600080600080600560008873ffffffffffffffffffffffffffffffffffffffff1673ffffffffffffffffffffffffffffffffffffffff16815260200190815260200160002090508695508060000180546120fd906132d5565b80601f0160208091040260200160405190810160405280929190818152602001828054612129906132d5565b80156121765780601f1061214b57610100808354040283529160200191612176565b820191906000526020600020905b81548152906001019060200180831161215957829003601f168201915b505050505094508060010160009054906101000a900460ff1693508060010160019054906101000a900460ff169250806002015491505091939590929450565b600160000160009054906101000a900473ffffffffffffffffffffffffffffffffffffffff1673ffffffffffffffffffffffffffffffffffffffff163373ffffffffffffffffffffffffffffffffffffffff1614612249576040517f08c379a00000000000000000000000000000000000000000000000000000000081526004016122409061305c565b60405180910390fd5b600060149054906101000a900460ff16612298576040517f08c379a000000000000000000000000000000000000000000000000000000000815260040161228f90612f1c565b60405180910390fd5b60006122a583858461246d565b905060006008600083815260200190815260200160002080549050905080600560008673ffffffffffffffffffffffffffffffffffffffff1673ffffffffffffffffffffffffffffffffffffffff16815260200190815260200160002060020160008282546123149190613186565b9250508190555060005b8181101561240957600060086000858152602001908152602001600020828154811061234d5761234c61343c565b5b9060005260206000209060060201600401549050600060028261237091906131dc565b8261237b9190613186565b9050806008600087815260200190815260200160002084815481106123a3576123a261343c565b5b90600052602060002090600602016005018190555060006008600087815260200190815260200160002084815481106123df576123de61343c565b5b9060005260206000209060060201600401819055505050808061240190613338565b91505061231e565b505050505050565b60008073ffffffffffffffffffffffffffffffffffffffff16600160000160009054906101000a900473ffffffffffffffffffffffffffffffffffffffff1673ffffffffffffffffffffffffffffffffffffffff161415905090565b600083838360405160200161248493929190612c2e565b6040516020818303038152906040528051906020012090509392505050565b8280546124af906132d5565b90600052602060002090601f0160209004810192826124d15760008555612518565b82601f106124ea57805160ff1916838001178555612518565b82800160010185558215612518579182015b828111156125175782518255916020019190600101906124fc565b5b509050612525919061254a565b5090565b5080546000825590600052602060002090810190612547919061254a565b50565b5b8082111561256357600081600090555060010161254b565b5090565b600061257a612575846130bc565b613097565b9050828152602081018484840111156125965761259561349f565b5b6125a1848285613293565b509392505050565b6000813590506125b881613869565b92915050565b6000813590506125cd81613880565b92915050565b6000813590506125e281613897565b92915050565b600082601f8301126125fd576125fc61349a565b5b813561260d848260208601612567565b91505092915050565b600081359050612625816138ae565b92915050565b600060208284031215612641576126406134a9565b5b600061264f848285016125a9565b91505092915050565b60006020828403121561266e5761266d6134a9565b5b600061267c848285016125be565b91505092915050565b60006020828403121561269b5761269a6134a9565b5b60006126a9848285016125d3565b91505092915050565b600080604083850312156126c9576126c86134a9565b5b60006126d7858286016125d3565b92505060206126e885828601612616565b9150509250929050565b60008060006060848603121561270b5761270a6134a9565b5b600084013567ffffffffffffffff811115612729576127286134a4565b5b612735868287016125e8565b9350506020612746868287016125a9565b9250506040612757868287016125a9565b9150509250925092565b60008060006060848603121561277a576127796134a9565b5b600084013567ffffffffffffffff811115612798576127976134a4565b5b6127a4868287016125e8565b93505060206127b5868287016125a9565b92505060406127c686828701612616565b9150509250925092565b6000602082840312156127e6576127e56134a9565b5b60006127f484828501612616565b91505092915050565b6000612809838361282d565b60208301905092915050565b6000612821838361292d565b60208301905092915050565b61283681613241565b82525050565b61284581613241565b82525050565b61285c61285782613241565b613381565b82525050565b600061286d8261310d565b6128778185613148565b9350612882836130ed565b8060005b838110156128b357815161289a88826127fd565b97506128a58361312e565b925050600181019050612886565b5085935050505092915050565b60006128cb82613118565b6128d58185613159565b93506128e0836130fd565b8060005b838110156129115781516128f88882612815565b97506129038361313b565b9250506001810190506128e4565b5085935050505092915050565b61292781613253565b82525050565b6129368161325f565b82525050565b6129458161325f565b82525050565b600061295682613123565b612960818561316a565b93506129708185602086016132a2565b612979816134ae565b840191505092915050565b600061298f82613123565b612999818561317b565b93506129a98185602086016132a2565b80840191505092915050565b60006129c260228361316a565b91506129cd826134cc565b604082019050919050565b60006129e560378361316a565b91506129f08261351b565b604082019050919050565b6000612a0860268361316a565b9150612a138261356a565b604082019050919050565b6000612a2b600e8361316a565b9150612a36826135b9565b602082019050919050565b6000612a4e601c8361316a565b9150612a59826135e2565b602082019050919050565b6000612a71601a8361316a565b9150612a7c8261360b565b602082019050919050565b6000612a9460258361316a565b9150612a9f82613634565b604082019050919050565b6000612ab7602a8361316a565b9150612ac282613683565b604082019050919050565b6000612ada601c8361316a565b9150612ae5826136d2565b602082019050919050565b6000612afd60178361316a565b9150612b08826136fb565b602082019050919050565b6000612b20601d8361316a565b9150612b2b82613724565b602082019050919050565b6000612b4360188361316a565b9150612b4e8261374d565b602082019050919050565b6000612b66601d8361316a565b9150612b7182613776565b602082019050919050565b6000612b89601d8361316a565b9150612b948261379f565b602082019050919050565b6000612bac602a8361316a565b9150612bb7826137c8565b604082019050919050565b6000612bcf600c8361316a565b9150612bda82613817565b602082019050919050565b6000612bf2600e8361316a565b9150612bfd82613840565b602082019050919050565b612c1181613289565b82525050565b612c28612c2382613289565b6133a5565b82525050565b6000612c3a828661284b565b601482019150612c4a8285612984565b9150612c568284612c17565b602082019150819050949350505050565b6000602082019050612c7c600083018461283c565b92915050565b600060c082019050612c97600083018961283c565b612ca4602083018861283c565b8181036040830152612cb6818761294b565b9050612cc56060830186612c08565b612cd26080830185612c08565b612cdf60a0830184612c08565b979650505050505050565b6000604082019050612cff600083018561283c565b8181036020830152612d11818461294b565b90509392505050565b600060a082019050612d2f600083018861283c565b8181036020830152612d41818761294b565b9050612d50604083018661291e565b612d5d606083018561291e565b612d6a6080830184612c08565b9695505050505050565b6000606082019050612d89600083018661283c565b612d966020830185612c08565b612da36040830184612c08565b949350505050565b60006020820190508181036000830152612dc58184612862565b905092915050565b60006020820190508181036000830152612de781846128c0565b905092915050565b6000602082019050612e04600083018461291e565b92915050565b6000604082019050612e1f600083018561291e565b612e2c6020830184612c08565b9392505050565b6000604082019050612e48600083018561293c565b612e556020830184612c08565b9392505050565b60006020820190508181036000830152612e75816129b5565b9050919050565b60006020820190508181036000830152612e95816129d8565b9050919050565b60006020820190508181036000830152612eb5816129fb565b9050919050565b60006020820190508181036000830152612ed581612a1e565b9050919050565b60006020820190508181036000830152612ef581612a41565b9050919050565b60006020820190508181036000830152612f1581612a64565b9050919050565b60006020820190508181036000830152612f3581612a87565b9050919050565b60006020820190508181036000830152612f5581612aaa565b9050919050565b60006020820190508181036000830152612f7581612acd565b9050919050565b60006020820190508181036000830152612f9581612af0565b9050919050565b60006020820190508181036000830152612fb581612b13565b9050919050565b60006020820190508181036000830152612fd581612b36565b9050919050565b60006020820190508181036000830152612ff581612b59565b9050919050565b6000602082019050818103600083015261301581612b7c565b9050919050565b6000602082019050818103600083015261303581612b9f565b9050919050565b6000602082019050818103600083015261305581612bc2565b9050919050565b6000602082019050818103600083015261307581612be5565b9050919050565b60006020820190506130916000830184612c08565b92915050565b60006130a16130b2565b90506130ad8282613307565b919050565b6000604051905090565b600067ffffffffffffffff8211156130d7576130d661346b565b5b6130e0826134ae565b9050602081019050919050565b6000819050602082019050919050565b6000819050602082019050919050565b600081519050919050565b600081519050919050565b600081519050919050565b6000602082019050919050565b6000602082019050919050565b600082825260208201905092915050565b600082825260208201905092915050565b600082825260208201905092915050565b600081905092915050565b600061319182613289565b915061319c83613289565b9250827fffffffffffffffffffffffffffffffffffffffffffffffffffffffffffffffff038211156131d1576131d06133af565b5b828201905092915050565b60006131e782613289565b91506131f283613289565b925082613202576132016133de565b5b828204905092915050565b600061321882613289565b915061322383613289565b925082821015613236576132356133af565b5b828203905092915050565b600061324c82613269565b9050919050565b60008115159050919050565b6000819050919050565b600073ffffffffffffffffffffffffffffffffffffffff82169050919050565b6000819050919050565b82818337600083830152505050565b60005b838110156132c05780820151818401526020810190506132a5565b838111156132cf576000848401525b50505050565b600060028204905060018216806132ed57607f821691505b602082108114156133015761330061340d565b5b50919050565b613310826134ae565b810181811067ffffffffffffffff8211171561332f5761332e61346b565b5b80604052505050565b600061334382613289565b91507fffffffffffffffffffffffffffffffffffffffffffffffffffffffffffffffff821415613376576133756133af565b5b600182019050919050565b600061338c82613393565b9050919050565b600061339e826134bf565b9050919050565b6000819050919050565b7f4e487b7100000000000000000000000000000000000000000000000000000000600052601160045260246000fd5b7f4e487b7100000000000000000000000000000000000000000000000000000000600052601260045260246000fd5b7f4e487b7100000000000000000000000000000000000000000000000000000000600052602260045260246000fd5b7f4e487b7100000000000000000000000000000000000000000000000000000000600052603260045260246000fd5b7f4e487b7100000000000000000000000000000000000000000000000000000000600052604160045260246000fd5b600080fd5b600080fd5b600080fd5b600080fd5b6000601f19601f8301169050919050565b60008160601b9050919050565b7f43616c6c65722068617320616c7265616479206465706f73697465642066756e60008201527f6473000000000000000000000000000000000000000000000000000000000000602082015250565b7f43616c6c65722063616e277420706172746963697061746520756e74696c203160008201527f3020657468657220686173206265656e2066756e646564000000000000000000602082015250565b7f43616c6c65722063616e2774207265676973746572206e6577206169726c696e60008201527f6573207965740000000000000000000000000000000000000000000000000000602082015250565b7f4e6f7420417574686f72697a6564000000000000000000000000000000000000600082015250565b7f4572726f723a20496e737572656520646f65736e277420657869737400000000600082015250565b7f43616c6c65722068617320616c726561647920696e7375726564000000000000600082015250565b7f436f6e74726163742069732063757272656e746c79206e6f74206f706572617460008201527f696f6e616c000000000000000000000000000000000000000000000000000000602082015250565b7f43616c6c65722068617320616c7265616479207265676973746572656420746860008201527f6973206169726c696e6500000000000000000000000000000000000000000000602082015250565b7f43616c6c6572206973206e6f7420636f6e7472616374206f776e657200000000600082015250565b7f496e76616c6964206e616d65206f722061646472657373000000000000000000600082015250565b7f43616e206f6e6c79206465706f736974207570746f2031206574686572000000600082015250565b7f4e6f7420612072656769737465726564204169726c696e650000000000000000600082015250565b7f4169726c696e6520697320616c72656164792072656769737465726564000000600082015250565b7f5468657265206973206e6f7468696e6720746f2077697468647261772e000000600082015250565b7f496e73756666696369656e742045746865722053656e742e205265717569726560008201527f7320313020657468657200000000000000000000000000000000000000000000602082015250565b7f496e76616c696420436f64650000000000000000000000000000000000000000600082015250565b7f4e6f7420617574686f72697a6564000000000000000000000000000000000000600082015250565b61387281613241565b811461387d57600080fd5b50565b61388981613253565b811461389457600080fd5b50565b6138a08161325f565b81146138ab57600080fd5b50565b6138b781613289565b81146138c257600080fd5b5056fea264697066735822122040833dadeeb75d6e13cd0dbb2ebed7e3d138ef5f834f2b9d19d184dc0450d68d64736f6c63430008060033",
  "immutableReferences": {},
  "source": "// SPDX-License-Identifier: MIT\n\npragma solidity ^0.8.0;\n\ncontract FlightSuretyData {\n  \n\n    /********************************************************************************************/\n    /*                                       DATA VARIABLES                                     */\n    /********************************************************************************************/\n\n    address private contractOwner;\n    bool private operational = true;\n\n    struct Caller {\n      address callerAddress;\n      address backUp;\n    }\n    Caller private authorizedCaller;\n\n    // AIRLINE DATA //\n    uint constant private MIN_REGISTERED_AIRLINES = 4;\n\n    struct Airline {\n        string name;\n        bool isRegistered;\n        bool canParticipate;\n        uint numberOfPayouts;\n    }\n    address[] private registeredAirlines;\n    uint private participatingCount;\n    mapping(address => Airline) private airlines;\n\n    mapping(address => address[]) private airlineConsensus;\n    address[] public consensusList;\n\n    // CUSTOMER DATA //\n    struct Customer {\n        address customerAddress;\n        address airline;\n        string flightNumber;\n        uint timestamp;\n        uint balance;\n        uint owed;\n    }\n    mapping (bytes32 => Customer[]) private insuredFlights;\n    bytes32[] private insuredFlightsList;\n\n\n    /********************************************************************************************/\n    /*                                       EVENT DEFINITIONS                                  */\n    /********************************************************************************************/\n\n    event AirlineConsensusVote(address airline, uint votes, uint votesTillApproved);\n    event AirlineRegistration(address airline, string name);\n\n    /********************************************************************************************/\n    /*                                       FUNCTION MODIFIERS                                 */\n    /********************************************************************************************/\n\n    modifier requireIsOperational() {\n        require(operational, \"Contract is currently not operational\");    \n        _;\n    }\n\n    modifier requireContractOwner() {\n        require(msg.sender == contractOwner, \"Caller is not contract owner\");\n        _;\n    }\n\n    modifier isAuthorizedCaller() {\n      require(msg.sender == authorizedCaller.callerAddress, \"Not authorized\");\n      _;\n    }\n\n    // CALLED FROM FLIGHTSURETY APP SO NEED ORIGINAL CALLER //\n    modifier isRegisteredAirline(address _caller) {\n        require(airlines[_caller].isRegistered, \"Not a registered Airline\");\n        _;\n    }\n\n    // CALLED FROM FLIGHTSURETY APP SO NEED ORIGINAL CALLER //\n    modifier canParticipate(address _caller) {\n        require(airlines[_caller].canParticipate, \"Caller can't participate until 10 ether has been funded\");\n        _;\n    }\n\n    modifier requiredValue {\n      require(msg.value >= 10 ether, \"Insufficient Ether Sent. Requires 10 ether\");\n      _;\n    }\n\n    modifier maxInsuranceDeposit {\n        require(msg.value <= 1 ether && msg.value > 0, \"Can only deposit upto 1 ether\");\n        _;\n    }\n\n\n    /**************************************************************************************/\n    /*                                       CONSTRUCTOR                                  */\n    /**************************************************************************************/\n\n    /**\n    * @dev Constructor\n    *      The deploying account becomes contractOwner\n    */\n    constructor() {\n        contractOwner = msg.sender;\n        // REGISTER 1st AIRLINE //\n        airlines[msg.sender] = Airline({ name: 'BA', isRegistered: true, canParticipate: false, numberOfPayouts: 0 });\n        registeredAirlines.push(msg.sender);\n        participatingCount = 0;\n    }\n\n    /********************************************************************************************/\n    /*                                       UTILITY FUNCTIONS                                  */\n    /********************************************************************************************/\n\n    function getContractOwner() public view returns (address) {\n      return contractOwner;\n    }\n    \n    function authorizeCaller(address _authAddress) external {\n      if (authorizedCaller.callerAddress != address(0)) {\n        require(authorizedCaller.callerAddress == msg.sender ||\n                authorizedCaller.backUp == msg.sender, \"Invalid Code\");\n      }\n      authorizedCaller.callerAddress = _authAddress;\n      authorizedCaller.backUp = msg.sender;\n    }\n\n    function isContractAuthorized() public view returns (bool) {\n      return authorizedCaller.callerAddress != address(0);\n    }\n\n    function getInsuredFlights() external view returns (bytes32[] memory) {\n        return insuredFlightsList;\n    }\n\n    function getInsuredCount(bytes32 flight) external view returns (uint) {\n        return insuredFlights[flight].length;\n    }\n\n    function getInsuree(bytes32 flight, uint _index) external view\n      returns (\n        address customerAddress,\n        address airline,\n        string memory flightNumber,\n        uint timestamp,\n        uint balance,\n        uint owed\n      ) {\n        require(_index < insuredFlights[flight].length, \"Error: Insuree doesn't exist\");\n        Customer memory insuree = insuredFlights[flight][_index];\n        customerAddress = insuree.customerAddress;\n        airline = insuree.airline;\n        flightNumber = insuree.flightNumber;\n        timestamp = insuree.timestamp;\n        balance = insuree.balance;\n        owed = insuree.owed;\n    }\n\n    function isOperational() public view returns (bool) {\n        return operational;\n    }\n\n    function setOperatingStatus(bool mode) external isAuthorizedCaller requireContractOwner {\n        operational = mode;\n    }\n\n    function isAirline(address _airline) public view returns (bool) {\n        return airlines[_airline].canParticipate;\n    }\n\n    function getRegisteredAirlines() public view returns (address[] memory) {\n        return registeredAirlines;\n    }\n    \n    function getAirline(address _airline) \n      external \n      view \n      returns (\n        address _airlineAddress, \n        string memory _name, \n        bool _isRegistered, \n        bool _canParticipate,\n        uint _numberOfPayouts\n        ) {\n        Airline storage airline = airlines[_airline];\n        _airlineAddress = _airline;\n        _name = airline.name;\n        _isRegistered = airline.isRegistered;\n        _canParticipate = airline.canParticipate;\n        _numberOfPayouts = airline.numberOfPayouts;\n      }\n\n      function getConsensusList() public view returns (address[] memory) {\n        return consensusList;\n      }\n\n      function getNumVotes(address _airline) public view returns (uint) {\n        return airlineConsensus[_airline].length;\n      }\n    \n    /********************************************************************************************/\n    /*                                     SMART CONTRACT FUNCTIONS                             */\n    /********************************************************************************************/\n\n   /**\n    * @dev Add an airline to the registration queue\n    *      Can only be called from FlightSuretyApp contract\n    *\n    */   \n    function registerAirline(string memory _name, address _airline, address _caller) \n        external\n        requireIsOperational\n        isAuthorizedCaller\n        isRegisteredAirline(_caller)\n        canParticipate(_caller)\n        returns (bool success, uint votes)\n        {\n            require(!airlines[_airline].isRegistered, \"Airline is already registered\");\n            require(bytes(_name).length > 0 && _airline != address(0), \"Invalid name or address\");\n            // CHECK IF AMOUNT OF REGISTERED AIRLINES HAS REACHED THE REQUIRED VALUE //\n            if (registeredAirlines.length < MIN_REGISTERED_AIRLINES) {\n                require(registeredAirlines[0] == _caller, \"Caller can't register new airlines yet\");\n                airlines[_airline] = Airline(\n                    { \n                        name: _name, \n                        isRegistered: true, \n                        canParticipate: false, \n                        numberOfPayouts: 0 \n                    }\n                );\n                registeredAirlines.push(_airline);\n                emit AirlineRegistration(_airline, _name);\n                success = true;\n                votes = 1;\n            // RUN THROUGH CONSENSUS REGISTRATION //\n            } else {\n                // CHECK IF CALLER HAS ALREADY REGISTERED THIS AIRLINE //\n                bool isDuplicate = false;\n                for (uint i = 0; i < airlineConsensus[_airline].length; i++) {\n                    if (airlineConsensus[_airline][i] == _caller) {\n                        isDuplicate = true;\n                        break;\n                    }\n                }\n                require(!isDuplicate, \"Caller has already registered this airline\");\n                // ADD CALLER TO CONENSUS FOR _airline //\n                if(airlineConsensus[_airline].length < 1) {\n                  consensusList.push(_airline);\n                }\n                airlineConsensus[_airline].push(_caller);\n                votes = airlineConsensus[_airline].length;\n                // CHECK IF _airline HAS REACHED 50% CONSENSUS REQUIREMENT //\n                if (votes >= participatingCount / 2) {\n                    airlines[_airline] = Airline(\n                        { \n                            name: _name, \n                            isRegistered: true, \n                            canParticipate: false,\n                            numberOfPayouts: 0 \n                        }\n                    );\n                    registeredAirlines.push(_airline);\n                    delete airlineConsensus[_airline];\n                    for (uint i = 0; i < consensusList.length; i++) {\n                      if (consensusList[i] == _airline) {\n                        delete consensusList[i];\n                        break;\n                      }\n                    }\n                    emit AirlineRegistration(_airline, _name);\n                    success = true;\n                } else {\n                    uint votesTillApproved = (registeredAirlines.length / 2) - airlineConsensus[_airline].length;\n                    emit AirlineConsensusVote(_airline, airlineConsensus[_airline].length, votesTillApproved);\n                    success = false;\n                }\n            }\n    }\n\n   /**\n    * @dev Buy insurance for a flight\n    *\n    */   \n    function buy(string memory _flightNumber, address _airline, uint256 _timestamp) \n        external \n        payable \n        requireIsOperational\n        maxInsuranceDeposit \n        isRegisteredAirline(_airline)\n        returns (bytes32 flightHash, uint id) \n        {\n            flightHash = getFlightKey(_airline, _flightNumber, _timestamp);\n            bool duplicate = false;\n            for (uint i = 0; i < insuredFlights[flightHash].length; i++) {\n              if (insuredFlights[flightHash][i].customerAddress == msg.sender) {\n                duplicate = true;\n                break;\n              }\n            }\n            require(!duplicate, \"Caller has already insured\");\n            Customer memory insuree = Customer(\n                {\n                    customerAddress: msg.sender,\n                    airline: _airline,\n                    flightNumber: _flightNumber,\n                    timestamp: _timestamp,\n                    balance: msg.value,\n                    owed: 0\n                }\n            );\n            insuredFlights[flightHash].push(insuree);\n            if (insuredFlights[flightHash].length < 2) {\n              insuredFlightsList.push(flightHash);\n            }\n            id = insuredFlights[flightHash].length;\n    }\n\n    /**\n     *  @dev Credits payouts to insurees\n    */\n    function creditInsurees(string memory _flightNumber, address _airline, uint256 _timestamp) \n        external\n        isAuthorizedCaller\n        requireIsOperational\n        {\n            bytes32 flightHash = getFlightKey(_airline, _flightNumber, _timestamp);\n            uint payouts = insuredFlights[flightHash].length;\n            airlines[_airline].numberOfPayouts += payouts;\n            for (uint i = 0; i < payouts; i++) {\n                uint balance = insuredFlights[flightHash][i].balance;\n                uint payout = balance + (balance / 2);\n                insuredFlights[flightHash][i].owed = payout;\n                insuredFlights[flightHash][i].balance = 0;\n            }\n    }\n    \n\n    /**\n     *  @dev Transfers eligible payout funds to insuree\n     *\n    */\n    function pay(bytes32 _flight, uint _index) external {\n        require(insuredFlights[_flight][_index].owed > 0, \"There is nothing to withdraw.\");\n        require(insuredFlights[_flight][_index].customerAddress == msg.sender, \"Not Authorized\");\n        uint balance = insuredFlights[_flight][_index].owed;\n        insuredFlights[_flight][_index].owed = 0;\n        payable(msg.sender).transfer(balance);\n    }\n\n   /**\n    * @dev Initial funding for the insurance. Unless there are too many delayed flights\n    *      resulting in insurance payouts, the contract should be self-sustaining\n    *\n    */   \n    function fund() public payable isRegisteredAirline(msg.sender) requiredValue {\n        require(!airlines[msg.sender].canParticipate, \"Caller has already deposited funds\");\n        airlines[msg.sender].canParticipate = true;\n        participatingCount++;\n    }\n\n    function getFlightKey(address airline, string memory flight, uint256 timestamp)\n        pure\n        internal\n        returns (bytes32) {\n\n        return keccak256(abi.encodePacked(airline, flight, timestamp));\n    }\n\n    fallback() external payable {\n        fund();\n    }\n\n    /**\n    * @dev Fallback function for funding smart contract.\n    *\n    */\n    receive() external payable {\n        fund();\n    }\n}\n\n",
  "sourcePath": "/Volumes/Samsung-Internal_1TB/CODE/blockChain/UDACITY-Nanodegree/FlightSurety/FlightSurety/contracts/FlightSuretyData.sol",
  "compiler": {
    "name": "solc",
    "version": "0.8.6+commit.11564f7e.Emscripten.clang"
  },
  "schemaVersion": "3.4.6",
  "updatedAt": "2022-03-24T12:27:20.722Z",
  "networkType": "ethereum",
  "devdoc": {
    "kind": "dev",
    "methods": {
      "buy(string,address,uint256)": {
        "details": "Buy insurance for a flight"
      },
      "constructor": {
        "details": "Constructor      The deploying account becomes contractOwner"
      },
      "creditInsurees(string,address,uint256)": {
        "details": "Credits payouts to insurees"
      },
      "fund()": {
        "details": "Initial funding for the insurance. Unless there are too many delayed flights      resulting in insurance payouts, the contract should be self-sustaining"
      },
      "pay(bytes32,uint256)": {
        "details": "Transfers eligible payout funds to insuree"
      },
      "registerAirline(string,address,address)": {
        "details": "Add an airline to the registration queue      Can only be called from FlightSuretyApp contract"
      }
    },
    "version": 1
  },
  "userdoc": {
    "kind": "user",
    "methods": {},
    "version": 1
  }
}